:100000000C94D6040C941D050C941D050C941D0530
:100010000C941D050C941D050C941D050C941D05D8
:100020000C941D050C941D050C94141F0C94501E6B
:100030000C94DE220C941D050C941D050C941D05DA
:100040000C941D050C941D050C941D050C941D05A8
:100050000C941D050C94F1210C941D050C941D05A8
:100060000C941D050C941D050C941D050C941D0588
:100070000C941D050C941D050C941D050C941D0578
:100080000C941D050C941D050C941D050C941D0568
:100090000C941D050C941D050C941D050C941D0558
:1000A0000C941D050C941D050C941D058611E5117D
:1000B000EA11EF11F411F911FE11031208120D12D9
:1000C000121219121C121F122212251228122B12A0
:1000D0002E123312F012F0122A132A137D139913E1
:1000E0002B152B15A4138214931493145E1C851CDA
:1000F000321E851C321ED11CF41C321EF51D041E3E
:10010000C325C325D625D625CC25D625D625D62547
:10011000C325C325D125D625D625D125000101012A
:1001200001010101010102020202020202020203B4
:100130000303030303030304040404040404050584
:100140000505050606060606070707070708080847
:1001500008090909090A0A0A0B0B0B0C0C0C0D0DF6
:100160000D0E0E0E0F0F0F1010111111121213138E
:100170001414151516161717181819191A1A1B1B07
:100180001C1D1D1E1E1F2020212222232424252663
:1001900026272829292A2B2C2D2D2E2F303132329B
:1001A000333435363738393A3B3C3D3E3F404142A7
:1001B000434445464748494A4C4D4E4F505153548D
:1001C000555658595A5B5D5E5F6162646566686941
:1001D0006B6C6D6F7072737577787A7B7D7E8082C1
:1001E000838587888A8C8E8F91939596989A9C9E0A
:1001F000A0A2A3A5A7A9ABADAFB1B3B5B7BABCBE1A
:10020000C0C2C4C6C9CBCDCFD1D4D6D8DBDDDFE2E6
:10021000E4E7E9EBEEF0F3F5F8FAFDFF7267626CE4
:10022000696768742074696D657220656E61626CBF
:1002300065642E0A007267626C69676874206D6F6E
:100240006465205B4E4F454550524F4D5D3A202529
:10025000750A007267626C69676874206D6F646507
:10026000205B454550524F4D5D3A2025750A00727E
:1002700067626C69676874207365742068737620A0
:100280005B4E4F454550524F4D5D3A2025752C250C
:10029000752C25750A007267626C69676874207333
:1002A000657420687376205B454550524F4D5D3A2A
:1002B0002025752C25752C25750A007267626C69DE
:1002C000676874207261696E626F7720736574204D
:1002D0006873763A2025642C25642C25642C2575BA
:1002E0000A00FFAA7F55407267626C6967687420D4
:1002F00074696D65722064697361626C652E0A00B1
:100300002223252628292A2C2D2F30323335363822
:100310003A3B3D3E4042434547494A4C4E5051537B
:100320005557595A5C5E6062646668696B6D6F719F
:10033000737577797B7D7F81838587898A8C8E90A1
:10034000929496989A9C9E9FA1A3A5A7A8AAACAEAA
:10035000AFB1B3B4B6B8B9BBBCBEBFC1C2C3C5C6EA
:10036000C7C9CACBCCCDCED0D1D2D2D3D4D5D6D793
:10037000D7D8D9D9DADADBDBDBDCDCDCDCDCDDDDD1
:10038000DDDDDCDCDCDCDCDBDBDBDADAD9D9D8D7C1
:10039000D7D6D5D4D3D2D2D1D0CECDCCCBCAC9C763
:1003A000C6C5C3C2C1BFBEBCBBB9B8B6B4B3B1AF9A
:1003B000AEACAAA8A7A5A3A19F9E9C9A989694923A
:1003C000908E8C8A89878583817F7D7B7977757311
:1003D000716F6D6B6968666462605E5C5A595755EF
:1003E0005351504E4C4A4947454342403E3D3B3AAB
:1003F0003836353332302F2D2C2A29282625232232
:100400007267626C696768742064697361626C65A5
:10041000205B454550524F4D5D3A207267626C69D2
:100420006768745F636F6E6669672E656E61626C84
:1004300065203D2025750A007267626C69676874E3
:1004400020656E61626C65205B454550524F4D5D85
:100450003A207267626C696768745F636F6E666981
:10046000672E656E61626C65203D2025750A0072FD
:1004700067626C6967687420746F67676C65205B7E
:10048000454550524F4D5D3A207267626C6967680E
:10049000745F636F6E6669672E656E61626C65205E
:1004A0003D2025750A0044454255473A206469734A
:1004B00061626C65642E0A0044454255473A2065E6
:1004C0006E61626C65642E0A0029001F02200223FF
:1004D0000225022D002E00260227022F0230022FB5
:1004E0000030004C002A0014001A00080015001704
:1004F000001C0018000C0012001300350024025FDD
:10050000006000610004001600070009000A000BEB
:10051000000D000E000F003300340031025C005D5E
:10052000005E001D001B00060019000500110010F0
:100530000036003700380052001E0259005A005B96
:1005400000E000E200E300E1002C00000001512B7C
:10055000002800500051004F0062002102220200DA
:100560005C000000000000000000000000C65CC548
:100570005CC85CC75CCA5CC95CBE00BD0000000012
:1005800000000000000000790000000000000046AC
:100590000000000000400041004200000000000098
:1005A000007E000000000000000000C25C000000AF
:1005B0000000003D003E003F007A007B007C007D93
:1005C00000000000006500000000003100A90000EC
:1005D000003A003B003C0000000000000039000031
:1005E0000000000100000000000000AA000000431D
:1005F00000440045007267626C696768745F636FEE
:100600006E6669672E7370656564203D2025640AF7
:10061000007267626C696768745F636F6E666967B2
:100620002E76616C203D2025640A007267626C6939
:100630006768745F636F6E6669672E736174203DCF
:100640002025640A007267626C696768745F636F73
:100650006E6669672E687565203D2025640A007204
:1006600067686C696768745F636F6E6669672E6D33
:100670006F6465203D2025640A007267626C6967BB
:1006800068745F636F6E6669672E656E61626C6524
:10069000203D2025640A007267626C696768745F98
:1006A000636F6E66696720454550524F4D3A0A00A8
:1006B0007267626C696768745F696E6974207267DB
:1006C000626C696768745F636F6E6669672E6D6FD1
:1006D0006465203D20302E20577269746520646562
:1006E0006661756C742076616C75657320746F201B
:1006F000454550524F4D2E0A007267626C6967681B
:10070000745F696E6974206565636F6E66696720E2
:100710006973206E6F7420656E61626C65642E0A69
:10072000007267626C696768745F696E69742073D0
:1007300074617274210A007267626C696768745F21
:10074000696E69742063616C6C65642E0A000A002E
:100750002530313662003A200025303258000A72C6
:100760002F63203031323334353637383941424304
:100770004445460A0032190A00047F3F1F643214C0
:10078000643214783C1E1E140A050A0025303258C3
:10079000006B6579626F6172645F7365745F6C652D
:1007A000643A20005B735D004B6579626F6172642F
:1007B0002073746172742E0A000631FF0974A1015E
:1007C0000975150026FF0095207508810209761528
:1007D0000026FF00952075089102C005010902A1BD
:1007E0000185020901A10005091901290515002546
:1007F00001950575018102950175038101050109C6
:100800003009311581257F95027508810609381553
:1008100081257F950175088106050C0A380215812E
:10082000257F950175088106C0C005010980A101D9
:10083000850319012AB700150126B7009501751027
:100840008100C0050C0901A101850419012AA0023B
:10085000150126A002950175108100C00501090649
:10086000A101050719E029E7150025019508750183
:1008700081029501750881010507190029FF1500FE
:1008800026FF0095067508810005081901290595C0
:100890000575019102950175039101C05B435D00EF
:1008A0005B445D005B535D005B575D005B525D0028
:1008B00009025B00030100A0FA0904000001030122
:1008C00001000921110100012240000705810308F0
:1008D000000A0904010001030000000921110100C0
:1008E000012281000705820320000A090402000298
:1008F00003000000092111010001222200070583E5
:10090000032000010705030320000112011001006C
:10091000000008646975000100010203010403304E
:100920000000000C03490064006F0062006F0000CB
:10093000001003470065006E0065007200690063E7
:10094000000000040309040A002530325820006B1F
:100950006579626F6172645F7265706F72743A205C
:1009600000290A002575002F002575005D28002547
:100970006400200025640020002564002000256418
:10098000007C0025303258006D6F7573656B65799A
:10099000205B62746E7C782079207620685D2872F6
:1009A00065702F61636C293A205B000011241FBE23
:1009B000CFEFDAE0DEBFCDBF04B603FE27C08091E3
:1009C000090390910A03A0910B03B0910C038730A7
:1009D000904BA740B04BD1F41092090310920A0338
:1009E00010920B0310920C0314BE84B7877F84BF50
:1009F0000FB6F894A895809160008861809360009C
:100A0000109260000FBEE0E0F8E3099511E0A0E06D
:100A1000B1E0E0E6F4E502C005900D92AC39B10713
:100A2000D9F723E0ACE9B1E001C01D92A930B207CB
:100A3000E1F70E94CD160C942E2A0C940000FF932F
:100A4000EF93E0919C01F0919D01309709F0099599
:100A5000EF91FF910895FC018591803011F0EFDF57
:100A6000FBCF0895FF27E0E230E247FF0CC041953D
:100A700097FF09C0EDE26095709580959095611D96
:100A8000711D811D911D27FF02C0219530E350E2A9
:100A9000AA27660F771F881F991FAA1FA41710F097
:100AA000A41B63955A95A9F7AA3008F0A95FA05D29
:100AB000AF93F395611571058105910541F7ED320D
:100AC00011F4EF93F395F21718F43F93F395FBCFDE
:100AD0008F91B5DFFA95E1F70895E991F991859144
:100AE000803021F0853219F0AADFF9CF089520E097
:100AF000E89455915532C1F3503311F468945591EF
:100B00005A3348F4505390F3220F022E220F220F33
:100B1000200D250FF4CF0EF421958991999153362C
:100B200019F3533729F1533559F1BC018827992717
:100B3000E8945C3621F489919991689455915436E2
:100B400039F446EF7EF077FF0DC08FEF9FEF0AC0BC
:100B500055374AE039F0583540E121F0523642E04D
:100B600009F00895FF93EF937DDFEF91FF91B7CFE9
:100B7000FF93EF93FC0181918030B9F360DFFBCFED
:100B8000FF93EF9368DFF1CFDF93CF93CDB7DEB75D
:100B90002596A3DFCF91DF9108950895AF92BF927C
:100BA000CF92DF92EF92FF920F931F93CF93DF9339
:100BB000E82EF62EE901E42FF0E0611106C0E45EB4
:100BC000FE4FE4914E2F2E2F71C0062F10E0E45EF1
:100BD000FE4F4491F42FC42ED12C26E0829FC001F9
:100BE00011242FEF30E0B9010E94E4295BEA56039B
:100BF000C001579F900D11248E0D911D8E0D911DDA
:100C0000582F550F580FD901A01BB10BAC9DC00137
:100C1000AD9D900DBC9D900D1124E92FF59ED00146
:100C20001124AB2FBB277901EA1AFB0AEC9CD001F7
:100C3000ED9CB00DFC9CB00D11245901A51AB10812
:100C4000A09E7001A19EF00CB09EF00C1124EF2C20
:100C5000FF242E193F092C9D80012D9D100D3C9DD8
:100C6000100D1124212F6230710591F048F46115A7
:100C70007105E1F061307105B9F4242F4B2F16C0D6
:100C80006430710569F040F06630710579F00CC090
:100C9000242F492FE12F0AC0492FEF2F2B2F06C0F9
:100CA000292FE42F412F02C0292FEB2F49832883BE
:100CB000EA83DF91CF911F910F91FF90EF90DF902A
:100CC000CF90BF90AF90089590913B0292FF0DC0DE
:100CD000282F2871283019F4877F846006C0282FB8
:100CE0002471243011F48B7F886093FF0DC0282F6E
:100CF0002871283119F4877E846106C0282F247159
:100D0000243111F48B7E886120913C0220FF0DC0BC
:100D1000382F3871383019F4877F816006C0382F3A
:100D20003171313011F48E7F886021FF0DC0282F82
:100D30002871283119F4877E816106C0282F21711E
:100D4000213111F48E7E886194FD877E08951F9372
:100D5000CF93DF93CDB7DEB767970FB6F894DEBFBA
:100D60000FBECDBF4B8B5C8B6D8B7E8B8F8B86E0EC
:100D70009E01235F3F4FD901E82F1D92EA95E9F7C5
:100D800095E0FE017396D90101900D929A95E1F7D5
:100D9000F901DE01179601900D928A95E1F7CE01D7
:100DA00007960E94DA2581113EC086E0FE01379643
:100DB000DE01119601900D928A95E1F7FF81E88599
:100DC0006A857B856115710531F0EF3F31F481E073
:100DD000FF3F19F403C081E001C080E080FD23C023
:100DE0002091970230E0C9010196877099274091C0
:100DF000C80250E08417950779F1F983EA837D836F
:100E00006C8396E0929FD001939FB00D1124A85659
:100E1000BD4FFE01319601900D929A95E1F78093B6
:100E200097020E943B2516E08091C802909197029C
:100E30008917F9F0189FC001112488569D4F0E9410
:100E4000DA258823B1F08091C80290E0019687707E
:100E500099278093C802E8CF0E94A6271092970294
:100E60001092C802E1E9F2E086E0DF011D928A9566
:100E7000E9F767960FB6F894DEBF0FBECDBFDF91DE
:100E8000CF911F91089520912802309129022817AF
:100E9000390771F09093290280932802E0913E0275
:100EA000F0913F02309721F00084F185E02D099404
:100EB000089520912602309127022817390771F0F2
:100EC0009093270280932602E0913E02F0913F0228
:100ED000309721F00680F781E02D09940895E09184
:100EE0003E02F0913F02309721F00190F081E02D19
:100EF000099480E008950F931F93CF93DF93C42F3D
:100F0000D22FFC0182818823C9F040932A020E94DB
:100F10002622909325028093240280E28C0F883051
:100F200008F05EC0C77081E001C0880FCA95EAF77B
:100F3000DF91CF911F910F910C94BC2780912A02D1
:100F400048133EC080912402909125020E941722EE
:100F5000883C9105A8F510E21D0FCD17B9F080E28D
:100F60008C0F883040F4C77081E001C0880FCA95AB
:100F7000EAF70E94B127183048F481E09D2F97705E
:100F800001C0880F9A95EAF70E94BC27802F0E9423
:100F90002D28093349F4FFEF27EE83E0F15020407C
:100FA0008040E1F700C00000802F0E94C627183063
:100FB000B8F4D77081E001C0880FDA95EAF70AC06B
:100FC00080E28C0F883060F4C77081E001C0880F28
:100FD000CA95EAF7DF91CF911F910F910C94B12739
:100FE000DF91CF911F910F910895882311F0FA019D
:100FF00001C0FB010994109257028091650280FFA5
:1010000008C087EE92E09F938F930E94C4050F90D3
:101010000F9008958091510280FF0AC0809A81B399
:101020008E7F91B391602FB7F894E4EAF1E00BC0A2
:10103000E4EAF1E0118210821282339631E0E43D5D
:10104000F307C1F7EBCF31E0E43DF30789F03191CD
:1010500048E091BB000000C037FF81BB330F0000A8
:1010600000C000C000C081BB00C04A9591F7EBCF23
:101070002FBF8FE594E00197F1F700C000000895BD
:101080008F929F92AF92BF92CF92DF92EF92FF9298
:101090000F931F93CF93DF93FC01B280948081E084
:1010A0008483C4EDD1E004EA11E08BE4A82E882407
:1010B0008394EE24EA94F12C2BE4C22ED12C9110CF
:1010C00003C01B821A824AC02B81222311F12150B6
:1010D0002B833C81332319F09A2D921B01C0922F50
:1010E00080915402899FC0011124B6010E94E42915
:1010F0006A83211104C0332311F01C82AB8222E0E9
:101100002B1560F18091520288838091530289836C
:1011100025C00E941D298230914004F582E08B1584
:1011200030F40E941D29B7010E94F82902C0809165
:101130005202888322E02B1558F40E941D29209129
:1011400053022695622F70E00E94F829820F02C098
:101150008091530289831A82AB828C8298014A81E2
:10116000698188810E94CE0525960D5F1F4F82E020
:10117000C432D80709F0A3CFDF91CF911F910F910F
:10118000FF90EF90DF90CF90BF90AF909F908F90A7
:101190000C940A08EF92FF920F931F93CF93DF9363
:1011A0008C01C4EAD1E0E12CF12CF8018481F8E053
:1011B000EF16F1041CF4882339F002C0811104C039
:1011C0009E014091540202C09E0140E06091530292
:1011D000809152020E94CE058FEFE81AF80A2396FA
:1011E00090E1E916F10409F70E940A08F8018481E8
:1011F00090E00196817099278483DF91CF911F91B0
:101200000F91FF90EF9008958F929F92AF92BF92AF
:10121000CF92DF92EF92FF920F931F93CF93DF93C2
:10122000EC014C81042F10E09801D8010E94C929DB
:101230009B01AC010E9494296B017C01E0E2F0E08B
:10124000E01BF10BA5E5B0E09B01AC010E949429E5
:101250004B015C019F01DF010E94122A9B01AC013E
:101260000E949F299B01AC012C0D3D1D4E1D5F1D51
:10127000C501B4010E94A729822FF22E99E292178C
:1012800028F093E0299F900111240DC025E530E05E
:10129000281B3109C901880F991F280F391F37FFF3
:1012A00002C02F5F3F4F35952795122F109594EA76
:1012B000C92E91E0D92E00E085E5E82EEF1801FD5A
:1012C00002C08E2D01C08F2D9601412F60915302D7
:1012D0000E94CE050F5F83E0C80ED11C003179F764
:1012E0000E940A088C81811102C091E003C0803203
:1012F00019F49FEF9093110190911101890F8C8344
:10130000DF91CF911F910F91FF90EF90DF90CF90E1
:10131000BF90AF909F908F9008950F931F93CF939E
:10132000DF93C4EAD1E0FE0111821082128233966B
:1013300081E0E43DF807C1F700E010E08091A201F0
:10134000082E000C990B0817190794F080911001D2
:10135000082E000C990B8017910754F09E014091C4
:10136000540260915302809152020E94CE0503C044
:10137000198218821A820F5F1F4F239600311105C0
:10138000E9F60E940A0880910F019091A201980F3E
:101390009093A20120911001280F209310011216A2
:1013A00014F49F301CF0819580930F01DF91CF9151
:1013B0001F910F910895CF92DF92EF92FF920F93BA
:1013C0001F93CF93DF93FC01828180FF03C0DD2454
:1013D000DA9402C0DD24D394C4EAD1E000E010E046
:1013E000198218821A8294E0E92EF12CC12C809186
:1013F000A1018C0D813114F08F7002C087FD805FD8
:10140000082E000C990B0817190791F480915402CB
:101410008E9DA0018F9D500D112455954795559592
:1014200047959E0160915302809152020E94CE0521
:10143000CD0CF1E0EF1AF108D1F60F5F1F4F2396A4
:101440000031110569F60E940A088091A10191E01E
:10145000D91206C0811102C08FE006C0815004C0BD
:1014600090E001968F7099278093A101DF91CF9131
:101470001F910F91FF90EF90DF90CF900895EF9222
:10148000FF921F93CF93DF93EC0184EAE82E81E073
:10149000F82E10E08C819701409154026091530224
:1014A000810F0E94CE05115F83E0E80EF11C103F12
:1014B00089F70E940A089A818C8190FF02C08F5F91
:1014C00001C081508C83DF91CF911F91FF90EF90ED
:1014D00008959091510290FF0CC0E4EAF1E08183FD
:1014E00060834283339691E0E43DF907C1F70C94A1
:1014F0000A0808950F931F93CF93DF9300D01F9294
:10150000CDB7DEB78C018091A30181110AC09E0185
:101510002F5F3F4F4FEF6FEF0E94CE058A81809380
:10152000A301F8018481813051F028F0823061F408
:101530004091A3010AC08091A30140E007C06091DF
:10154000A30140E080E003C040E080E060E00E9452
:10155000690AF801848190E0019663E070E00E94DE
:10156000F82984830F900F900F90DF91CF911F91F6
:101570000F910895CF93DF9300D01F92CDB7DEB7C0
:101580009091510290FF0AC09E012F5F3F4F0E9431
:10159000CE054B8169818A810E94690A0F900F9064
:1015A0000F90DF91CF910895CF93DF93EC01E1E5A8
:1015B000F2E0438162818C810E94BA0A8C818F5F44
:1015C0008C83DF91CF910895CF93DF93EC01EC8171
:1015D000F0E0E050FD4F4491E1E5F2E0628181816D
:1015E0000E94BA0A8C818F5F8C83DF91CF9108951E
:1015F00080915102282F269530E02115310519F4EC
:101600008170826005C02B32310524F081708465C1
:10161000809351020895CF92DF92EF92FF926B0177
:101620007C010E94F80AB701A60188E090E0FF90D3
:10163000EF90DF90CF900C9453293F924F925F929E
:101640006F927F928F929F92AF92BF92CF92DF92D2
:10165000EF92FF920F931F93CF93DF9300D01F92CF
:10166000CDB7DEB7182F762E042F422E909151025F
:1016700090FFB2C0E92FE695AE2FB0E0A35EBE4F5B
:101680008C91809356029E7F923061F49E012F5F71
:101690003F4F812F0E94CE054B8169818A810E9434
:1016A000690A60C0823019F4009154025BC0863030
:1016B00019F41091520256C08930D9F3893109F0DA
:1016C00051C0E9518E2F8170582E81E0652C68261B
:1016D000E695F0E0EE51FD4FC590D49034EAA32E8C
:1016E00031E0B32EE12CF12CDD244BEB842E42E0D3
:1016F000942EEC9CC001ED9C900DFC9C900D11244F
:1017000024E0969587952A95E1F7312E511002C075
:10171000380E01C0381A8091650280FF11C0DF9237
:10172000CF921F926F921F923F92FF92EF929F92E1
:101730008F920E94C4050FB6F894DEBF0FBECDBFD6
:101740009501402F672D832D0E94CE059FEFE91A4A
:10175000F90A83E0A80EB11C90E1E916F10449F6FC
:101760000E940A081093520270925302009354028E
:101770004420E9F06091510270915202809153022D
:10178000909154020E940B0B8091650280FF24C04F
:10179000809154021F928F93809153021F928F93D6
:1017A000809152021F928F9386E992E00CC0809143
:1017B000650280FF11C01F920F931F927F921F92AC
:1017C0001F938FE692E09F938F930E94C4050FB6FC
:1017D000F894DEBF0FBECDBF0F900F900F90DF913A
:1017E000CF911F910F91FF90EF90DF90CF90BF901E
:1017F000AF909F908F907F906F905F904F903F90B1
:101800000895E1E5F2E0438128E0421B08F440E05E
:1018100021E0628181810C941D0BE1E5F2E04381BE
:1018200028E0420F08F44FEF21E0628181810C949F
:101830001D0BE1E5F2E0628128E0621B08F460E044
:1018400021E0438181810C941D0BE1E5F2E062818E
:1018500028E0620F08F46FEF21E0438181810C944E
:101860001D0BE1E5F2E0818121E043816281885036
:101870000C941D0BE1E5F2E0818121E0438162815E
:10188000885F0C941D0B80915502882319F08150BC
:1018900080935502609151027091520280915302DF
:1018A000909154020C940B0B80915502833018F4E4
:1018B0008F5F809355026091510270915202809126
:1018C0005302909154020C940B0B9091510290FF93
:1018D00068C09170811102C0926006C08B3210F016
:1018E000946502C0880F982B909351026623B1F043
:1018F0006091510270915202809153029091540272
:101900000E940B0B8091650280FF1BC080915102E9
:1019100086951F928F9383E592E00BC080916502BC
:1019200080FF0FC08091510286951F928F9385E3AF
:1019300092E09F938F930E94C4050F900F900F9099
:101940000F9060915102669570E04BE050E084E0AA
:1019500091E00E94212A892B19F00E94FB0715C0F3
:1019600081E0809357020E94262290934C0280933C
:101970004B028091650280FF08C08CE192E09F934A
:101980008F930E94C4050F900F9081E080934E02C8
:1019900020E04091540260915302809152020C94D5
:1019A0001D0B0895809151028695815009F48AE2B9
:1019B00061E00C94650C8091510286958F5F8B32AB
:1019C00008F081E061E00C94650C9091510290FF69
:1019D00004C09695981740F003C0811105C090E0AF
:1019E000961710F40C94DB0C61E00C94650CE1E5A7
:1019F000F2E083E0808311828FEF828383831482FD
:101A000060817181828193810C940B0B7F928F9204
:101A10009F92AF92BF92CF92DF92EF92FF920F937D
:101A20001F93CF93DF9308E411E0ADE2B2E027E328
:101A3000A22E22E0B22E812CEE24E394F12CE801B8
:101A400089918E01E82FE295EF70F0E021A18F706F
:101A5000A70102C0440F551F8A95E2F7CA01242B43
:101A600021A322A1742E7094272122A350EA5A9513
:101A7000F1F79DE4C92E91E0D92E60E070E040E0DE
:101A800050E0E60199906E01292D22952F7030E0EB
:101A9000E90128A130E0D92DDF7002C035952795E6
:101AA000DA95E2F720FD08C09701062E02C0220F4A
:101AB000331F0A94E2F702C020E030E0422B532BA0
:101AC0006F5F7F4F6F307105E1F691A1D72DD9235C
:101AD000D1A392A1892B82A38D919C911197481734
:101AE000590729F011965C934E9381E001C080E084
:101AF000882A1296AA16BB0609F0A1CF882049F0C1
:101B000081E08093A0010E94262290939F01809300
:101B10009E018091A001882391F180919E01909176
:101B20009F010E941722069750F180912D029091FB
:101B30002E02909342028093410280912F02909155
:101B4000300290934402809343028091310290913D
:101B50003202909346028093450280913302909125
:101B6000340290934802809347028091350290910D
:101B7000360290934A02809349021092A001882D68
:101B8000DF91CF911F910F91FF90EF90DF90CF9059
:101B9000BF90AF909F908F907F900895CF93DF93E9
:101BA0002BE4829FC0011124FC013FE0739FE00DF4
:101BB000F11D1124E60FF11DEE0FFF1FE753FB4F40
:101BC000C591D491CE01C238D10569F1B0F4C133C9
:101BD000D10509F475C048F4C932D10509F469C0CA
:101BE000CA32D10509F473C085C0C533D10509F4E3
:101BF00059C0C933D105B9F07DC0C33ED10571F1DB
:101C000038F4C03ED105B1F0C23ED10511F172C029
:101C1000C63ED105B9F1C73ED105C9F1C43ED105D3
:101C200009F068C024C020913B0220FD5DC021FD69
:101C30005BC060C020913B0220FD50C020913C025F
:101C400020FF67C180913B0284FD61C183EE90E07B
:101C500060C120913B0222FF5CC1F4CF80913B0226
:101C600082FD3FC080913C0280FD3EC0EBCF2091C1
:101C70003C0221FF4EC180913B0284FD48C187EEAA
:101C800090E047C120913B0223FF43C1F4CF8091F4
:101C90003B0283FD2CC080913C0281FFECCF84EE9F
:101CA00090E037C120913B0225FF33C189E290E0EB
:101CB00030C120913B0225FF2CC185E390E029C172
:101CC00020913B0226FF25C18AE290E022C12091AB
:101CD0003B0226FF1EC181E390E01BC189E390E037
:101CE00018C182EE90E015C180EE90E012C186EE40
:101CF00090E00FC1C11530E5D30708F067C0C115EA
:101D000040E4D40720F0CE019F70906A02C1C83E23
:101D1000D105B8F5C03ED10508F0FBC0C83AD105E1
:101D2000B8F4C53AD10550F08C2F855AE82FF0E071
:101D3000E559FE4F808190E09064EBC0C130D10541
:101D400009F4E7C008F4E3C0249708F4E0C0E1C058
:101D5000CF3BD10560F48C2F885AE82FF0E0EE0FCE
:101D6000FF1FE259FE4F808191819464D2C0C03C34
:101D7000D10508F4CCC0FE01EE0FFF1FE456F04081
:101D80000EC0C11520E2D20768F0C11540E3D407A8
:101D9000A8F4FE01FF70EE0FFF1FE45EFE4F859179
:101DA0009491B7C0C11531E0D30708F0B2C0C03F6D
:101DB000D10508F4ACC0CE019065ABC0CE01992727
:101DC000D3FF02C0986CA5C0906CA3C0C11585E577
:101DD000D80708F05BC0C11524E5D20728F09C2F76
:101DE0008827846F906A95C0C11532E5D30738F50E
:101DF000C11541E5D407F0F4CE0174E096958795BE
:101E00007A95E1F7282F23703C2F337081E090E022
:101E100002C0880F991F3A95E2F79C68922BEC2F2D
:101E2000EF70E695E69540E2E49FF00111248E2BD9
:101E30009F2B6FC09C2F8827816F906A6AC0AE016C
:101E4000437055272C2F26952695C115D34578F438
:101E500081E090E002C0880F991F4A95E2F740E2C6
:101E6000249F90011124822B932B9C6852C081E007
:101E700090E002C0880F991F4A95E2F740E2249F44
:101E800090011124822B932B9A6843C0C11529E538
:101E9000D207B0F4C11538E5D30728F09C2F882766
:101EA000806F906A36C0C11546E5D40780F58C2F47
:101EB0000E9464068F7190E0982F8827906229C055
:101EC000C1158AE5D80790F48C2F8F700E946406A4
:101ED000FE0194E0F695E7959A95E1F7EF70F0E052
:101EE000FE2FEE27F0699F01282B0FC0CE019056E0
:101EF0008115904260F48D2F8F710E946406FE015F
:101F0000FF27F0628F719F01382BC90102C080E06A
:101F100090E0DF91CF9108958F929F92AF92BF9200
:101F2000CF92DF92EF92FF920F931F93CF93DF93A5
:101F3000CDB7DEB72A970FB6F894DEBF0FBECDBF80
:101F4000FC010081D18083819481892B39F01FEFBE
:101F5000D11206C091E00F3F19F403C091E001C017
:101F600090E090FDB7C57F0185E0DE0116960190F7
:101F70000D928A95E1F7F70122818E819F812223BC
:101F800049F00E942424182F682F8E819F810E947F
:101F90009D2403C00E947124182F2BE4129FF0018E
:101FA00011243FE0D39EE00DF11D1124E00FF11D3F
:101FB000EE0FFF1FE753FB4F05911491033F8CE594
:101FC000180759F190F4083DECE51E07E9F0093DCA
:101FD000FCE51F07A1F1073D2CE51207B1F506E26C
:101FE00021EE41EE67ED7CE514C0053F3CE51307AB
:101FF00001F1C8F0063F9CE5190739F507E225EE27
:1020000046EE66EF7CE505C007E225EE45EE68ED9D
:102010007CE5C7010E947B077CC206E221EE40EE10
:1020200063EF7CE5F6CF07E225EE44EE64EF7CE556
:10203000F0CF06E221EE42EE65EF7CE5EACF08E262
:1020400021E045EE69ED7CE5E4CFF701928199232B
:1020500009F43FC110922A020230FCE51F0708F480
:1020600022C106312CE5120738F098012A5F3C4561
:102070002930310508F017C10E942E2390933C02AD
:1020800080933B0200313CE5130709F4C3C008F01C
:1020900041C008309CE5190709F49AC0F0F40430F7
:1020A000FCE51F0709F487C068F402303CE513071C
:1020B00009F477C003301C4509F0E5C080913B026C
:1020C000826076C006309CE5190709F46EC008F0FE
:1020D0007BC080913B0288606BC00C30FCE51F0721
:1020E00009F485C068F40A303CE5130709F474C0AC
:1020F00008F079C00E94A62780913B02806858C0F2
:102100000E309CE5190709F476C008F07FC0809175
:102110003B028BC00B3FFCE51F0709F44FC018F5CD
:1021200003313CE5130709F47DC078F401319CE5E7
:10213000190709F473C002311C4509F0A4C00E94BC
:10214000A62780913B028F7733C00531FCE51F073E
:1021500009F472C008F486C00A3F1C4509F093C018
:1021600080913C023EC00F3F8CE5180709F45FC028
:1021700058F40D3FECE51E0709F444C008F43FC0D5
:1021800080913C0282602DC001302DE5120709F4D8
:1021900075C008F45DC002301D4509F074C060E0F0
:1021A0006EC080913B02816003C080913B028061E0
:1021B00080933B0268C080913B0211C080913C0239
:1021C000826080933C025FC080913B028062F0CFCE
:1021D00080913B028064ECCF80913B0288608460F8
:1021E000E7CF8160EECF80913B028E7FE1CF80917F
:1021F0003B028D7FDDCF80913B02877FD9CF8091DD
:102200003C0218C080913C028D7FDBCF80913B0265
:102210008F7ECECF80913B028F7DCACF80913B02D3
:102220008F7BC6CF80913B02877F8B7FC1CF809110
:102230003C028D7F8E7FC5CF80913B0282FB22279F
:1022400020F991E0922790FB82F990FB83F9B0CFBF
:1022500080913C02982F909591708E7F892B90FBF6
:1022600081F9AFCF0E94A62780913B0287FB2227EE
:1022700020F991E0922790FB87F99ACF61E08EE0F8
:1022800090E00E94412960913B0210913C0284E061
:1022900090E00E944129612F81E290E00E94412953
:1022A0000E94A62736C18091FE0206312CE5120756
:1022B00009F58A7A91E009F490E090932B02882343
:1022C00011F065E301C069E289E892E00E941423FD
:1022D0000EC006311C4509F03BC180912B028823BA
:1022E00009F4F6C365E389E892E00E9407230E949F
:1022F000BA230FC18272F801E25CFC45E431F105BA
:1023000008F0B6C0EA5AFF4F0C940C2A809165027F
:1023100080FF10C080915102809581701F928F9331
:102320008FE694E09F938F930E94C4050F900F90C7
:102330000F900F908091510280FF2EC08E7F80936E
:10234000510260915102709152028091530290911A
:1023500054020E940B0B8091650280FF0FC0809198
:10236000510281701F928F9380E094E09F938F932E
:102370000E94C4050F900F900F900F900E94FB07D2
:102380009FEFE0E7F2E09150E040F040E1F700C05D
:1023900000000E940A08BDC08160809351028091B4
:1023A000650280FF0DC01F9281E08F9388E394E067
:1023B0009F938F930E94C4050F900F900F900F90E2
:1023C0008091510261E0869550C042ED5CE06BED7A
:1023D0007CE02CC04BED5CE062ED7CE027C041E38B
:1023E0005CE06AE37CE022C04AE35CE061E37CE01D
:1023F0001DC049E15CE065E27CE018C045E25CE0BC
:1024000069E17CE013C041E05CE06DE07CE00EC07F
:102410004DE05CE061E07CE009C043E45CE064E541
:102420007CE004C044E55CE063E47CE00E94F507E6
:1024300070C061E081E019C065E082E011C068E031
:1024400086E00EC06EE089E00BC064E18FE008C05A
:1024500067E185E105C061E088E107C062E289E1EA
:102460000E94E50C56C061E083E20E94650C51C0F9
:1024700001302CE51207C1F10E3D3CE5130709F4CC
:1024800046C001151C4509F063C00E94A6279FEFB6
:10249000E4E3FCE09150E040F040E1F700C00000D0
:1024A00081E08093E00080E28093D8001092C90020
:1024B0008FE19EE40197F1F700C0000087E090EB08
:1024C000DC018093090390930A03A0930B03B0935C
:1024D0000C039CE088E10FB6F894A8958093600007
:1024E0000FBE90936000FFCF80916502982F90956A
:1024F000917090FB80F980936502992319F088EB25
:1025000094E002C086EA94E00E942B0502C00E947B
:102510003F238091FB02877009F4DCC2F7018281BE
:10252000882309F4D7C282E02A960FB6F894DEBF5A
:102530000FBECDBFDF91CF911F910F91FF90EF9014
:10254000DF90CF90BF90AF909F908F900C94F72426
:10255000F70100811181992349F0C8010E942424C8
:10256000D82E682FC8010E949D2404C0C8010E9473
:102570007124D82EB8018D2D0E94CE0D8C01982E7D
:10258000F701A580A2942FE0A222D280D110109250
:10259000FD028091FB02877099F0DD2089F0812F88
:1025A000807F803421F080E2800F883048F082E024
:1025B0000E94F7248091FB028770CC24C394811180
:1025C000C12CB12EB2949FE0B9228B2D90E08C30BB
:1025D000910508F040C2FC01E659FF4F0C940C2A0B
:1025E000812F807F1F70882311F01295107FDD20CE
:1025F000B9F0112309F41AC280E2800F883010F07C
:10260000911006C08091FE02182B1093FE0205C0A7
:102610008091FD02182B1093FD020E94BA2306C27E
:10262000802F0E94C627112309F415C2005E109561
:10263000083010F0911006C08091FE02182310930C
:10264000FE0205C08091FD0218231093FD020E9436
:10265000BA2301C2812F807F1F70803211F0129542
:10266000107F992021F0F1E09F16E1F02AC0DD20D3
:1026700081F08091FF02AA2051F001E0A01207C072
:10268000182B181709F4E7C11093FF02E4C1812B3E
:1026900010C0AA2021F021E0A21609F4DCC10E949A
:1026A000B42327C0DD2041F035E03A1508F4D3C14A
:1026B000812F0E94BC27CFC184E08A1508F4CBC1CA
:1026C00018C0DD2049F0AA2099F3F701858180FF29
:1026D000ADC18F708583ECCFAA2059F0093309F082
:1026E000B7C1FFEF17EE23E0F15010402040E1F7B3
:1026F000ADC1812F0E94B127AEC1812F86958695ED
:10270000837019F0813059F0A6C1DD2019F0C8019D
:10271000937002C080E090E00E945907A2C1DD20C2
:1027200019F0C801937002C080E090E00E94430756
:1027300098C1802FDD2019F00E94892102C00E94DB
:10274000C2200E9432228DC1812F837009F069C09E
:10275000D11085C1902F929596959770990F990FEA
:10276000802F8F70882E912CA12CB12C092E04C0A3
:10277000880C991CAA1CBB1C0A94D2F704FF12C037
:102780004FE050E060E070E004C0440F551F661F4A
:10279000771F9A95D2F7DB01CA0180959095A09595
:1027A000B09503C080E090E0DC0116951695412FAE
:1027B0004370423019F1C8F40091000310910103F5
:1027C0002091020330910303413059F0882999295F
:1027D000AA29BB29BC01CD01602371238223932345
:1027E0000AC0802A912AA22AB32ABC01CD016829F5
:1027F00079298A299B290E94312531C18829992963
:10280000AA29BB2900910003109101032091020322
:1028100030910303BC01CD016027712782279327E4
:10282000EACFDD2019F0812F817001C086958823C1
:1028300009F415C1902F929596959770990F990F5D
:10284000802F8F70882E912CA12CB12C092E04C0C2
:10285000880C991CAA1CBB1C0A94D2F704FF12C056
:102860004FE050E060E070E004C0440F551F661F69
:10287000771F9A95D2F7DB01CA0180959095A095B4
:10288000B09503C080E090E0DC0116951695412FCD
:1028900043704230D9F068F5009137021091380248
:1028A0002091390230913A02413059F08829992912
:1028B000AA29BB29BC01CD01602371238223932364
:1028C0001EC0802A912AA22AB32A13C088299929D6
:1028D000AA29BB29009137021091380220913902B0
:1028E00030913A02BC01CD016027712782279327DE
:1028F00006C0BC01CD01682979298A299B290E943B
:10290000C824ADC01F70DD2039F0812F0E94102532
:10291000802F0E94BC27A3C0802F0E94B127812F47
:102920000E94D2249CC0802F32EF931609F440C03D
:10293000391538F090EF991661F0E1EF9E1699F194
:1029400070C0F3EF9F16D9F124EF921609F44EC030
:1029500068C0DD2019F134E03A1508F47CC01F711D
:1029600081E090E0A0E0B0E0AC01BD0104C0440F04
:10297000551F661F771F1A95D2F7809137029091E5
:102980003802A0913902B0913A028A019B010827CE
:1029900019272A273B27C901B80125C025E02A1598
:1029A00008F459C0DCCFDD2029F0812F8F712CC0B5
:1029B000DD20D9F3812F8F710E94D2244CC0DD20FD
:1029C00079F01F7181E090E0A0E0B0E0BC01CD01A2
:1029D00004C0660F771F881F991F1A95D2F703C08E
:1029E00060E070E0CB010E94C82435C0DD2079F0A2
:1029F0001F71812F0E94102538E0139FC001112400
:102A000083608093FB02812F0E94102524C081E007
:102A10000E94F72481E08A15F0F482E00E94F724F6
:102A20001AC0DD2039F0AA2009F4BFCF802F0E9400
:102A30002D2811C0AA2009F4BDCF893349F49FEF96
:102A4000E7EEF3E09150E040F040E1F700C0000015
:102A5000802F0E94C62788EF8B0D843010F40E94CF
:102A60006F07CC20A9F08091FB0280FD11C0F70117
:102A700012828595859585950E941025C7010E9433
:102A80008C0F8091FB028595859585950E94D224B7
:102A900085E0F701DE01119601900D928A95E1F72C
:102AA00089819A810E9471249A810BE4809FF001B0
:102AB00011241FE0919FE00DF11D11248981E80F81
:102AC000F11DEE0FFF1FE753FB4F8591949102C05C
:102AD00069E209CC2A960FB6F894DEBF0FBECDBFCF
:102AE000DF91CF911F910F91FF90EF90DF90CF90EA
:102AF000BF90AF909F908F9008959FB7F8941092D9
:102B000070029FBF90917F02943009F057C090915E
:102B1000E9009F703091EC00232F217030FD20E8F8
:102B2000922B23E02093E9002091EB0020FF43C08B
:102B30002091EE0027FF3FC020912C02222321F09C
:102B40002091E80025FF37C010922C0226E030913A
:102B5000E80035FD15C030917F02343061F53091C9
:102B6000EB0035FD28C0215021F481E080932C0238
:102B700022C0EFE9FFE03197F1F700C00000E7CF96
:102B80008093F1008091E80085FD0AC08091E80003
:102B900080FFFCCF8091E8008E778093E80006C02C
:102BA0008FB7F89421E0209370028FBF9F709093AD
:102BB000E90080E008959F709093E9008FEF0895F9
:102BC000BC0184E00C948F20BC0183E00C948F2026
:102BD0002091E4003091E50095E64091EC00842FCF
:102BE000817040FF23C08091E80080FD1DC080916E
:102BF0007F02882399F0853099F08091EB0085FD64
:102C000011C04091E4005091E5002417350729F3E5
:102C1000915011F09A01E1CF84E0089582E0089587
:102C200083E0089581E0089580E008954091E800F0
:102C300042FFDDCF08958091810287FF11C080910E
:102C4000E80082FD05C080917F028111F8CF11C09C
:102C50008091E8008B770BC080917F02882349F038
:102C60008091E80080FFF8CF8091E8008E77809314
:102C7000E8000895982F973068F59093E900981729
:102C800039F07091EC002091ED005091F00003C0FC
:102C9000242F762F50E021FD02C09F5FECCF3091B2
:102CA000EB003E7F3093EB003091ED003D7F3093A1
:102CB000ED003091EB0031603093EB007093EC004D
:102CC0002093ED005093F0002091EE0027FDE5CF1A
:102CD00080E008958F708093E90081E0089520914D
:102CE0008702309188022617370748F06115710571
:102CF00039F42091E8002E772093E80001C0B90153
:102D0000FC0120E06115710579F180917F02882333
:102D1000F1F18530F1F18091E80083FD3CC08091B4
:102D2000E80082FD2EC08091E80080FFEBCF20916B
:102D3000F3008091F20090E0922B6115710551F043
:102D40008830910538F421912093F1006150710988
:102D50000196F3CF21E0089709F020E08091E80088
:102D60008E778093E800CECF2111CFCF0AC080911B
:102D70007F02882361F0853061F08091E80083FD57
:102D80000AC08091E80082FFF2CF80E0089582E0DF
:102D9000089583E0089581E00895CF93DF93CDB740
:102DA000DEB761970FB6F894DEBF0FBECDBF84B714
:102DB000877F84BF0FB6F894A895809160008861E2
:102DC00080936000109260000FBE90E080E80FB624
:102DD000F89480936100909361000FBE85B780687E
:102DE00085BF85B7806885BF0E94941E0E94B31E70
:102DF0008091E20084608093E2008DE795E19093FA
:102E00009D0180939C01789480917F028823A1F09A
:102E10001091E9001F709091EC00892F817090FD56
:102E200080E8182B1092E9008091E80083FD0E9451
:102E3000791B1F701093E90082E084BD93E095BD7B
:102E40009AEF97BD80936E00A8E4B1E041E050E0B6
:102E50008D91E82FE295EF70F0E021A18F70BA011B
:102E600002C0660F771F8A95E2F7CB01962F9095E7
:102E7000922391A392A1892B82A371E0AD34B7076D
:102E800039F7ADE4B1E041E050E08D91E82FE295F3
:102E9000EF70F0E021A18F70BA0102C0660F771FBA
:102EA0008A95E2F7CB01962F9095922391A392A158
:102EB000892B82A371E0AC35B70739F7EDE2F2E078
:102EC000A1E4B2E0119211921D921D9282E0E733CB
:102ED000F807C1F780E090E00E943B298C3E9E4FAE
:102EE00011F00E943F2380E090E00E943B298C3E3D
:102EF0009E4F11F00E943F2382E090E00E942D2916
:102F0000809365020E942E2390933C0280933B02A3
:102F100083E090E00E942D29682F70E080E090E02F
:102F20000E94312580913D028111E0C080916502AF
:102F300080FF08C087E397E09F938F930E94C405AA
:102F40000F900F908091650280FF08C081E297E0AA
:102F50009F938F930E94C4050F900F9080E090E0A4
:102F60000E943B298C3E9E4F81F08091650280FF3C
:102F700008C089EF96E09F938F930E94C4050F903D
:102F80000F900E943F230E94F70C88E090E00E947F
:102F900035296093510270935202809353029093AB
:102FA00054026E7FD1F48091650280FF08C080EBEF
:102FB00096E09F938F930E94C4050F900F900E94FC
:102FC000F70C88E090E00E943529609351027093DD
:102FD000520280935302909354020E94F80A809107
:102FE000650280FF08C087E996E09F938F930E9457
:102FF000C4050F900F908091650280FF0FC08091F3
:10300000510281701F928F938AE796E09F938F936E
:103010000E94C4050F900F900F900F908091650251
:1030200080FF0FC08091510286951F928F938FE58C
:1030300096E09F938F930E94C4050F900F900F907E
:103040000F908091650280FF0EC0809152021F9206
:103050008F9385E496E09F938F930E94C4050F9011
:103060000F900F900F908091650280FF0EC08091AD
:1030700053021F928F938BE296E09F938F930E944F
:10308000C4050F900F900F900F908091650280FF04
:103090000EC0809154021F928F9381E196E09F931E
:1030A0008F930E94C4050F900F900F900F90809106
:1030B000650280FF0EC0809155021F928F9385EFAD
:1030C00095E09F938F930E94C4050F900F900F90EF
:1030D0000F90109257028091510280FF04C060E06F
:1030E00086950E94650C81E080933D0282E191E02B
:1030F00090933F0280933E0288EA97E00E942B055E
:1031000080917F02853009F040C084EA97E00E94F8
:103110002B0580917F02843021F11092400220E43F
:1031200088E190E00FB6F894A895809360000FBEF8
:103130002093600083B7817F846083BF83B7816001
:1031400083BF7894889583B78E7F83BF0FB6F8943A
:10315000A895809160008861809360001092600063
:103160000FBE80917E02882309F4CACF0E94060D0B
:103170008BE492E0E1E4F2E021913191232B09F01C
:103180006CC28E179F07C1F7BBCF0E94060D46E6A3
:10319000442E42E0542E51E4652E52E0752E00E09C
:1031A00010E0098BF301A190B1903F01F201C190B1
:1031B000D1902F01CA24DB24C114D104B1F40F5FD4
:1031C0001F4F0530110569F78FEF8C878D871E869D
:1031D0000E9426228160782F988B8F874C855D8591
:1031E0006E8588890E94A70677C08091650281FD5F
:1031F00005C080E0EE24E394F12C48C08EE597E012
:103200000E942B0521E4822E22E0922EE12CF12C4B
:10321000FF92EF9229E537E03F932F930E94C40578
:1032200086E597E00E942B05F40180812180F2E081
:103230008F0E911C0E94A223382E822D0E94A22361
:10324000232D30E0322F2227A901482BCA019F935A
:103250008F9360E577E07F936F930E94C4058EE4BF
:1032600097E00E942B059FEFE91AF90A0FB6F89430
:10327000DEBF0FBECDBFF5E0EF16F10449F6B9CFC2
:103280008F5FEE0CFF1C8F3009F499CF96012E2131
:103290003F21232BA9F38F8329892887AE20BF20C4
:1032A00081E0AB2809F480E089870E9426228160B2
:1032B000782F9B878A874F81588569858B850E94E7
:1032C000A706000F111FF801EA59FD4F8081918177
:1032D000E826F926F182E08280915702882309F4DA
:1032E000ACC080915602E0915102E695E81BE09354
:1032F0004D02823059F4F0E0EA57F84FE4910E2F76
:1033000010E0F4EEEF2EFAE0FF2E6BC0863059F499
:10331000F0E0ED57F84FE4910E2F10E0E4EDEE2EC3
:10332000EAE0FE2E5EC0893061F4E695F0E0E058F8
:10333000F84FE4910E2F10E07FE3E72E7AE0F72EAE
:1033400050C08F3061F4E695F0E0E358F84FE49117
:103350000E2F10E06BEDE62E69E0F62E42C08531AF
:1033600059F4F0E0E658F84FE4910E2F10E05DE8D4
:10337000E52E59E0F52E35C08831F9F0833249F455
:10338000E8E7F7E0059114914AE7E42E4AE0F42ECD
:1033900028C08432C9F08532F1F48E2F63E00E9498
:1033A000D829E92FF0E0EB58F84FE4910E2F10E008
:1033B00030E4E32E38E0F32E14C008E210E024E0FD
:1033C000E22E29E0F22E0DC004EF11E09AECE92E76
:1033D00098E0F92E06C000ED17E08DECE82E85E0B0
:1033E000F82E80914E02882389F010924E020E949E
:1033F0002622980120953095820F931F90934C02BE
:1034000080934B021092500210924F0280914B0217
:1034100090914C020E9417228017910770F0E09162
:103420004B02F0914C020E0F1F1F10934C020093A1
:103430004B028BE492E0F701099586E0EEE5F2E0BD
:10344000DE01119601900D928A95E1F7E0906002FD
:10345000F09061020091620210916302109260028A
:10346000109261021092620210926302E11003C096
:10347000FF2009F451C080915C0290915D020E948E
:1034800017229C0190915B02992309F4FCC023331D
:10349000310508F441C09F3F19F09F5F90935B0294
:1034A000EE2061F00E9469211E1414F09FEF01C00C
:1034B00091E0899F802D112480936002FF2061F0AC
:1034C0000E9469211F1414F09FEF01C091E0899FB1
:1034D000802D112480936102309160023323E1F04A
:1034E000209161022223C1F045EB3403C001112475
:1034F000992319F09093600203C081E080936002E9
:1035000055EB2503C0011124992319F09093610212
:1035100003C081E080936102011103C0112309F40B
:1035200051C08091590290915A020E9417229C0129
:1035300090915802992309F4ABC02536310508F45F
:1035400041C09F3F19F09F5F90935802002361F0A4
:103550000E944721101614F09FEF01C091E0899F4F
:10356000802D112480936202112361F00E94472173
:10357000111614F09FEF01C091E0899F802D112456
:1035800080936302309162023323E1F02091630261
:103590002223C1F065EB3603C0011124992319F0F1
:1035A0009093620203C081E08093620275EB27036F
:1035B000C0011124992319F09093630203C081E0A4
:1035C000809363028091600281110BC0809161023F
:1035D000811107C080916202811103C08091630252
:1035E00081110E943222EB82FC820D831E8386E0D1
:1035F000FE013196AEE5B2E001900D928A95E1F7B9
:103600000E946F0790916402891709F479CD0E9496
:103610006F07182F809364028091650282FF70CD3E
:1036200080FF04C081E997E00E942B05809165022C
:1036300080FF0CC01F921F938CE897E09F938F939D
:103640000E94C4050F900F900F900F90809165021B
:1036500080FF56CD8AE897E051CD80E189BD82E1B7
:1036600089BD09B400FEFDCF8091D8008F7D809385
:10367000D8008091E00082608093E0008091E000BB
:1036800081FDFCCF3DCD2D32314008F006CF44CF37
:103690002D32314008F057CF95CFEF92FF920F9324
:1036A0001F93CF93DF937C018B010E94E81581115A
:1036B00019C0E70101151105A1F08091E80085FD11
:1036C0000AC08091E8008E778093E8000E94E81598
:1036D000882381F307C089918093F100015011097B
:1036E000E9CF80E0DF91CF911F910F91FF90EF9094
:1036F00008951F93CF93DF93CDB7DEB7AA970FB688
:10370000F894DEBF0FBECDBFE1E8F2E089E892E0B9
:103710002091F10021938E179F07D1F780918202AB
:10372000833009F460C030F4813071F0823009F4E4
:103730009AC0B1C08A3009F486C08B3009F46BC0DE
:10374000893009F0A8C020C080918102813A09F037
:10375000A2C08091E800877F8093E8008091850275
:1037600090918602892B21F468E085E792E003C0FE
:1037700060E080E090E070E00E946F168091E800C9
:103780008B778093E80087C080918102813209F0B5
:1037900082C08091850290918602029708F07BC0DA
:1037A0008091E800877F8093E8008091E80082FDA7
:1037B00005C080917F028111F8CF6DC02091F30088
:1037C0008091F20090E0922B029729F48091F10011
:1037D0008B7F813021F48091F1008093740280917D
:1037E000E8008B7754C080918102813A09F053C080
:1037F0008091850290918602892B09F04CC08091BE
:10380000E800877F8093E8008091E80080FFFCCF8C
:1038100080911C0137C0809181028132E1F5809155
:10382000850290918602892BB1F58091E800877F0F
:103830008093E8000E941B168091830280931C01F4
:103840000E94A62728C080918102813221F58091B3
:10385000E800877F8093E8000E941B168091840215
:103860008093730218C080918102813AA1F4809103
:10387000E800877F8093E8008091E80080FFFCCF1C
:10388000809173028093F1008091E8008E7780939D
:10389000E8000E941B168091E80083FFE3C180913D
:1038A000810290918202492F50E04A30510508F080
:1038B000D9C1FA01EA58FF4F0C940C2A803821F044
:1038C000823809F0CFC108C080917D0290917E02BC
:1038D000992389F082600FC0809185028F708730B4
:1038E00008F0C0C18093E9008091EB0085FB882738
:1038F00080F91092E9009091E800977F9093E8009A
:103900008093F1001092F1007BC1282F2D7F09F0E8
:10391000A9C1882319F0823061F0A4C1809183028B
:10392000813009F09FC1933009F080E080937E02DE
:103930002EC08091830281112AC0809185028F70F0
:103940002FEF280F263008F08DC18093E9002091D9
:10395000EB0020FF1CC0933021F48091EB008062CB
:1039600014C09091EB0090619093EB0021E030E067
:10397000A90102C0440F551F8A95E2F74093EA005F
:103980001092EA008091EB0088608093EB00109227
:10399000E9008091E800877F8093E8000E941B1671
:1039A00061C181115FC1109183021F778091E30093
:1039B0008078812B8093E3008091E800877F80935B
:1039C000E8000E941B168091E80080FFFCCF8091E8
:1039D000E30080688093E300111102C082E001C01F
:1039E00083E080937F023EC18058823008F03AC164
:1039F00020918302309184022C3D53E0350779F504
:103A000083E08A838AE289834FB7F894DE011396B4
:103A100020E03EE051E2E32FF0E050935700E491C4
:103A200020FF03C0E295EF703F5FEF708E2F90E0B4
:103A3000EA3010F0C79601C0C0968D939D932F5F1A
:103A4000243149F74FBF8091E800877F8093E800D9
:103A50006AE270E0CE0101960E946F16C0C08091AC
:103A6000850290918602432F552743305105B1F0CE
:103A700068F44130510509F404C14230510509F0A0
:103A8000F1C08BE590E0E0EBF8E057C04132510522
:103A900089F14232510509F43CC0E4C0C9019927BB
:103AA00081309105B9F070F082309105D9F003971B
:103AB00009F0D8C0EDE1F9E0E4918E2F90E0EDE15E
:103AC000F9E038C0E3E4F9E0E4918E2F90E0E3E41C
:103AD000F9E030C0E1E3F9E0E4918E2F90E0E1E31A
:103AE000F9E028C0E3E2F9E0E4918E2F90E0E3E210
:103AF000F9E020C08330910508F0B4C0880F991F09
:103B0000FC01EB59FE4F0190F081E02D89E090E03F
:103B100014C08330910508F0A5C0FC01EE0FFF1F13
:103B2000E15AFE4F0190F081E02DDC01A45ABE4F16
:103B30008C9190E0009709F495C02091E800277FD0
:103B40002093E800209187023091880228173907D6
:103B500008F4C90140E0009789F120917F022223F7
:103B600009F43DC02530D9F12091E80023FD37C08C
:103B70002091E80022FD2FC02091E80020FFEBCF2C
:103B80004091F3002091F20030E0342B009759F07F
:103B90002830310540F444914093F100319601976B
:103BA0002F5F3F4FF3CF41E02830310509F040E06F
:103BB0002091E8002E772093E800CDCF4111CDCFA2
:103BC0000AC080917F02882351F0853041F08091B6
:103BD000E80083FD04C08091E80082FFF2CF80916D
:103BE000E8008B778093E8003DC08038D9F580915C
:103BF000E800877F8093E800809180028093F10045
:103C00008091E8008E77C8CE81112CC0809183020C
:103C100090918402992702972CF58091E800877F84
:103C20008093E80010918302109380020E941B167B
:103C3000111106C08091E30087FD02C081E001C040
:103C400084E080937F0242E061EC81E00E943A16BA
:103C500042E261EC82E00E943A1642E261EC83E0CB
:103C60000E943A168091E80083FF10C08091E8001E
:103C7000877F8093E8008091EB0080628093EB0067
:103C800005C082E190E0EBE0F9E057CFAA960FB6CD
:103C9000F894DEBF0FBECDBFDF91CF911F91089585
:103CA0001F920F920FB60F9211242F933F934F93B1
:103CB0005F936F937F938F939F93AF93BF93CF93B4
:103CC000DF93EF93FF93C091E900CF708091EC00F8
:103CD000D82FD17080FDD0E81092E9008091F000DB
:103CE000877F8093F00078940E94791B1092E900FE
:103CF0008091F00088608093F000CD2BCF70C0934E
:103D0000E900FF91EF91DF91CF91BF91AF919F912A
:103D10008F917F916F915F914F913F912F910F9074
:103D20000FBE0F901F901895E8EDF0E080818E7F18
:103D300080831092E2001092DA001092E100A0EE6F
:103D4000B0E08C9181608C9380818F77808319BCE7
:103D5000A7EDB0E08C918E7F8C9380818F7E8083E5
:103D6000109272020895CF92DF92EF92FF920F931A
:103D70001F93CF93DF93C8EDD0E088818F7E888337
:103D8000E7EDF0E080818160808384E082BF81E0A4
:103D90008093720288818E7F888302EE10E0F801A2
:103DA00010821092DA0081EEC82ED12CF60110821A
:103DB00088818F77888388818068888388818F7DD8
:103DC000888319BC10927F021092800210927E02AA
:103DD00010927D0290EEE92EF12CF70180818B7F0D
:103DE000808388818160888342E060E080E00E9477
:103DF0003A16F60180818E7F8083F8018081816090
:103E00008083808188608083F70180818E7F8083BA
:103E1000888180618883DF91CF911F910F91FF90FE
:103E2000EF90DF90CF9008951F920F920FB60F92F0
:103E300011242F933F934F935F936F937F938F93AF
:103E40009F93AF93BF93EF93FF938091E10082FF25
:103E500049C08091E20082FF45C08091E1008B7FE4
:103E60008093E100209171022F5F822F62E30E9414
:103E7000D829992319F02093710234C0109271024D
:103E800080917002882371F180917F02843041F526
:103E90008091E9008F702091EC00922F917020FDAD
:103EA00090E8892B93E09093E9009091EB0090FFCC
:103EB00014C09091EE0097FF10C09091E80095FF1C
:103EC00003C01092F100F9CF9091E80090FF05C077
:103ED0009091E8009E779093E8008F708093E900BE
:103EE000109270028091DA0080FF32C08091D80079
:103EF00080FF2EC08091DA008E7F8093DA0080915F
:103F0000D90080FF1CC080E189BD82E189BD09B470
:103F100000FEFDCF81E080937F028CE998E00E9453
:103F20002B0580917202811113C00E94941E0E9481
:103F3000B31E8091E20084608093E20009C019BC46
:103F400010927F0280EA98E00E942B051092720284
:103F50008091E10080FF1BC08091E20080FF17C0CC
:103F60008091E2008E7F8093E2008091E200806188
:103F70008093E2008091D80080628093D80019BCC1
:103F800085E080937F0284EA98E00E942B0580916F
:103F9000E10084FF36C08091E20084FF32C080E1FE
:103FA00089BD82E189BD09B400FEFDCF8091D800B2
:103FB0008F7D8093D8008091E1008F7E8093E10017
:103FC0008091E2008F7E8093E2008091E200816028
:103FD0008093E20080918002882311F084E007C082
:103FE0008091E30087FD02C081E001C083E08093FF
:103FF0007F0288EA98E00E942B050E94A6270E9473
:104000006F078091E10083FF2BC08091E20083FF66
:1040100027C08091E100877F8093E10082E0809358
:104020007F02109280028091E1008E7F8093E100F8
:104030008091E2008E7F8093E2008091E2008061B7
:104040008093E20042E060E080E00E943A168091B6
:10405000F00088608093F0008CEA98E00E942B05C5
:10406000FF91EF91BF91AF919F918F917F916F9150
:104070005F914F913F912F910F900FBE0F901F9026
:10408000189580917402089522E02093E9002FEFA3
:104090003091E800215035FD06C035ED3A95F1F735
:1040A00000002111F5CF2091E80025FF0BC040E072
:1040B00050E066E070E00E944D1B8091E8008E7732
:1040C0008093E8000895CF93DF9321E02093E900E7
:1040D0002FEF3091E800215035FD06C035ED3A95BF
:1040E000F1F700002111F5CF2091E80025FF14C061
:1040F000EC0140E050E068E070E00E944D1B8091D0
:10410000E8008E778093E80088E0FE01A5E7B2E042
:1041100001900D928A95E1F7DF91CF910895CF93A9
:10412000DF9300D01F92CDB7DEB790917F0294301D
:1041300019F589837B836A8382E08093E9008FEF9E
:104140009091E800815095FD06C095ED9A95F1F7A4
:1041500000008111F5CF8091E80085FF0DC040E09F
:1041600050E063E070E0CE0101960E944D1B80910B
:10417000E8008E778093E8000F900F900F90DF910A
:10418000CF910895803F39F48091610287FF6AC022
:104190001092610267C0813F29F480916102181674
:1041A000BCF360C090916002823F29F497FF5AC02F
:1041B0001092600257C0833F19F41916CCF352C015
:1041C00090916202893F31F419160CF04BC01092A5
:1041D000620248C08A3F19F497FF44C0F8CF8B3F72
:1041E00039F48091630287FF3DC0109263023AC0A8
:1041F0008C3F29F4809163021816BCF333C0843FCE
:1042000021F480915F028E7F17C0853F21F4809159
:104210005F028D7F11C0863F21F480915F028B7F0A
:104220000BC0873F21F480915F02877F05C0883FE4
:1042300031F480915F028F7E80935F0213C08D3FC7
:1042400021F4809108038E7F0BC08E3F21F4809172
:1042500008038D7F05C08F3F29F4809108038B7F71
:104260008093080380916002811106C080916102F1
:10427000811102C010925B0280916202811106C01E
:1042800080916302811102C01092580208958091BA
:10429000080380FD16C081FD16C082FD18C0809104
:1042A0005802882391F0883290F428E0829FC00160
:1042B000112468E270E00E94F829862F672B29F00C
:1042C00007C082E0089584E0089581E0089588E0C1
:1042D00008958091080380FD14C081FD14C082FD03
:1042E00016C080915B02882381F0843180F422E340
:1042F000829FC001112464E170E00E94F829862F9A
:1043000008958CE0089589E1089585E0089582E399
:104310000895803F21F40E946921819504C0813F66
:1043200029F40E946921809361020895823F21F45B
:104330000E946921819504C0833F29F40E9469216C
:10434000809360020895893F19F40E94472105C0B7
:104350008A3F31F40E94472181958093620208953B
:104360008B3F21F40E944721819504C08C3F29F4A2
:104370000E944721809363020895843F21F4809135
:104380005F02816017C0853F21F480915F028260E7
:1043900011C0863F21F480915F0284600BC0873F8B
:1043A00021F480915F02886005C0883F31F48091DC
:1043B0005F02806180935F0208958D3F21F48091B8
:1043C000080381600BC08E3F21F480910803826056
:1043D00005C08F3F29F4809108038460809308030F
:1043E000089578941F920F920FB60F9211248F9315
:1043F0009F93AF93BF938091040390910503A09185
:104400000603B09107030196A11DB11D809304031B
:1044100090930503A0930603B0930703BF91AF9158
:104420009F918F910F900FBE0F901F9018959C0138
:104430004FB7F8948091040390910503A09106036F
:10444000B09107034FBF821B930B08952FB7F894C9
:104450008091040390910503A0910603B091070396
:104460002FBF08958091650283FF7EC088E899E0A0
:104470000E942B0580915F021F928F9383E899E041
:104480009F938F930E94C40581E899E00E942B05B9
:1044900080916002282F082E000C330B3F938F93DE
:1044A0008EE799E09F938F930E94C4058CE799E073
:1044B0000E942B0580916102282F082E000C330BDF
:1044C0003F938F9389E799E09F938F930E94C40550
:1044D00087E799E00E942B0580916202282F082E21
:1044E000000C330B3F938F9384E799E09F938F9356
:1044F0000E94C40582E799E00E942B058091630227
:10450000282F082E000C330B3F938F938FE699E0F2
:104510009F938F930E94C4058CE699E00E942B051F
:1045200080915B021F928F9389E699E09F938F930E
:104530000E94C40587E699E00E942B05809108033C
:104540001F928F9384E699E09F938F930E94C405F6
:1045500081E699E00E942B058DB79EB74C960FB669
:10456000F8949EBF0FBE8DBF0E942622209160024C
:10457000211104C020916102222321F090935D0259
:1045800080935C0220916202211104C02091630299
:10459000222321F090935A0280935902E0913E0227
:1045A000F0913F02309749F082E080935E020480F0
:1045B000F581E02D8EE592E0099408951F920F9207
:1045C0000FB60F9211248F939F93AF93BF93809157
:1045D0004002811113C08091040390910503A091C2
:1045E0000603B09107034196A11DB11D80930403FA
:1045F00090930503A0930603B0930703BF91AF9177
:104600009F918F910F900FBE0F901F9018959C0156
:104610002A5F3F4FFC014281461301C0128201967E
:1046200082179307B9F708959C01FC0132969FEF1A
:1046300080E04191461789F09F3F19F4411101C074
:10464000982F8F5F8630A9F79F3F39F0F901E90F66
:10465000F11D97FDFA95628308950895CF9384E044
:1046600090E00E942D29C82F81E290E00E942D2920
:104670002C2F30E0A901582BCA01CF9108956CEE80
:104680007EEF80E090E00E945F2960E082E090E0B1
:104690000E94412960E083E090E00E94412910924D
:1046A000000310920103109202031092030360E0D2
:1046B00084E090E00E94412960E081E290E00E9465
:1046C000412960E085E090E00E94412960E086E0B9
:1046D00090E00E9441296FEF87E090E00E9441291D
:1046E00040E050E0BA0188E090E00E94532960E089
:1046F0008DE090E00E94412940E050E0BA0188E15D
:1047000090E00E94532960E087E190E00E944129F7
:1047100040E050E0BA018CE190E00E94532960E053
:1047200080E290E00E94412940E050E0BA018FE031
:1047300090E00E94532940E050E0BA0183E190E00C
:104740000C9453298295982F937344E0949F900181
:1047500011248C7C86958695282B822F8575880F51
:104760002A7A2695822B08958091FF02811110925A
:10477000FF020895EF92FF920F931F93CF939091B2
:10478000FE028091FD02892B2091FC02982F922B32
:10479000909389028091FF02882389F0892B80936E
:1047A0008902EBE8F2E097E080E0915029F0219156
:1047B0002223D9F38F5FF9CF81110E94B423E091B6
:1047C0003E02F0913F023097C9F10280F381E02D63
:1047D00089E892E009958091650282FF2FC080FFF1
:1047E00004C08FE499E00E942B0509E812E0C8E0BC
:1047F00089E4E82E89E0F82E8091650280FF0CC0E4
:10480000F80180811F928F93FF92EF920E94C4055E
:104810000F900F900F900F90C1500F5F1F4FC1115D
:10482000EBCF8091650280FF09C087E499E0CF91CA
:104830001F910F91FF90EF900C942B05CF911F913A
:104840000F91FF90EF900895BF92CF92DF92EF9279
:10485000FF920F931F93CF93DF938C01C090370289
:10486000D0903802E0903902F0903A028091000333
:1048700090910103A0910203B0910303C82AD92AA1
:10488000EA2AFB2ACFE1D0E0D701C6010C2E04C0F2
:10489000B695A795979587950A94D2F780FD04C0A1
:1048A000219790F7B12C07C0BC2EB8018C2F0E9425
:1048B000CE0D0197A9F38B2DDF91CF911F910F9111
:1048C000FF90EF90DF90CF90BF900895CF93DF934C
:1048D000EC010E942424BE010E94CE0DDF91CF91F5
:1048E00008952FE0929F800D1124682F669566959C
:1048F0006695982F977085E0689FB001112440E07D
:1049000050E080E0FB01E40FF51FE753FD4F2081ED
:1049100030E0092E02C0369527950A94E2F72170FF
:104920003327042E01C0220F0A94EAF7822B4F5F2F
:104930005F4F4530510531F708952FE0929F800D6C
:104940001124E82FE695E695E695877051E001C0C1
:10495000550F8A95EAF785E0E89FF0011124E753A7
:10496000FD4F20E030E070E04081CB01022E02C01C
:10497000969587950A94E2F781708195842785231F
:10498000842781932F5F3F4F2530310569F70895C4
:1049900060933702709338028093390290933A0201
:1049A0000C9489270F931F9341E050E060E070E082
:1049B00004C0440F551F661F771F8A95D2F7409594
:1049C0005095609570958091370290913802A09132
:1049D0003902B0913A028A019B01082319232A2344
:1049E0003B23C901B8011F910F910C94C824209159
:1049F000FB02809582238093FB02982F977079F4B5
:104A000030E0482F082E000C550B2417350739F0DD
:104A10008595859585950E94D2241092FB02089574
:104A20000F931F9341E050E060E070E004C0440F3A
:104A3000551F661F771F8A95D2F780913702909194
:104A40003802A0913902B0913A028A019B01082BE9
:104A5000192B2A2B3B2BC901B8011F910F910C94E4
:104A6000C824609300037093010380930203909322
:104A700003030C9489278091C802909197028917AB
:104A800019F08F5F8770FBCF08950F931F93CF931B
:104A9000DF938091960282958F7009F05DC08091BE
:104AA0009302882309F458C08091C802109197029C
:104AB0006091910270919202C0919402D0919502FE
:104AC00091E06F3F09F090E0292F06E0811709F48B
:104AD00043C0209721F07F3F21F030E003C031E058
:104AE00001C0322F90E030FD34C0089FF001099FD3
:104AF000F00D1124DF01A856BD4F11963C9111977E
:104B0000371327C03C91361324C012963C9112975C
:104B100031111FC013964D915C9114974C1B5D0B86
:104B2000483C5105B0F4809196028F70806180936B
:104B30009602E356FD4F80818F708061808381E90A
:104B400092E00E948C0FDF91CF911F910F910C94F6
:104B50003B2501968770BACFDF91CF911F910F91BE
:104B600008950E946624292F2F70E92FE295EF7097
:104B70004E2F50E0FA013297EE30F105B8F4E058CC
:104B8000FF4F0C940C2A803F99F018F4883E70F483
:104B90000FC0843F59F40CC0883E50F0813F31F47F
:104BA00007C0822F869586958695089580E00895A2
:104BB00081E008959F92AF92BF92CF92DF92EF92E1
:104BC000FF920F931F93CF93DF93CDB7DEB761971B
:104BD0000FB6F894DEBF0FBECDBF8C0185E0F801A3
:104BE000DE011D9601900D928A95E1F7F801908102
:104BF0008181E28030919102609192024091940211
:104C0000509195024115510531F06F3F31F421E08B
:104C10003F3F19F403C021E001C020E0F22FF17002
:104C20009F2E20FD23C1F801C380D48021E9A22E4C
:104C300022E0B22EF0909302F601E41BF50BFF2068
:104C400009F4CEC020919602E83CF10508F099C025
:104C5000422F407F09F051C0681311C039130FC0B3
:104C6000FE2CE1100CC02F70206120939602C5012C
:104C70000E948C0F80919602F801858337C1CD2860
:104C800031F08F3F31F421E09F3F19F403C021E060
:104C900001C020E020FD03C021E02E2502C020E05D
:104CA00030E0F22FF170FF2E20FF1DC02091C802CE
:104CB0004091970256E0241709F4F6C030E0529F65
:104CC000F001539FF00D1124E856FD4F61818613CA
:104CD00006C06081961303C06281E61204C02F5F94
:104CE0003F4F2770E8CFFE2CEE2009F4FFC08091E3
:104CF000960281608093960250C0681307C03913F2
:104D000005C0E11003C0F80125838DC09D878E8703
:104D10008D859E850E94B125882369F1EE2059F189
:104D200020919602822F82958F7090E0029774F006
:104D3000809191029091920298878F831986DB86E9
:104D4000CA862C87CE0107960E948C0F86E0F80158
:104D5000A1E9B2E001900D928A95E1F70E94452504
:104D60000DC06817E1F09D878E878D859E850E9416
:104D7000B12581111EC0C8010E948C0FFF24F3943D
:104D8000B5C0422F407F69F781E992E00E948C0F05
:104D900086E0F50111928A95E9F7F12CA7C0391345
:104DA000E2CFE110E0CFF8012583C8010E948C0F0B
:104DB00057C0EE2001F320919602822F82958F70CA
:104DC00090E002971CF280919102909192029A8356
:104DD00089831B82DD82CC822E83CE010196B4CFE3
:104DE000E83CF105E8F5FE2CEE2029F2681327C017
:104DF000391325C02091960220FD18C0822F82957C
:104E00008F70482F50E04115510581F0F80125833E
:104E10004F30510541F08F5F982F9295907F822FF0
:104E20008F70892B8583C8010E948C0F86E0F80162
:104E3000A1E9B2E001900D928A95E1F757C09D87F4
:104E40008E878D859E850E94B12581117FCF8091AF
:104E50009602816080939602C8010E948C0F46C022
:104E600086E0F50111928A95E9F740C0EE2009F439
:104E700082CF9D878E878D859E850E94B125F82ED5
:104E8000882309F478CF86E0F801A1E9B2E0019027
:104E90000D928A95E1F780919102909192020E9481
:104EA00066240E94452522C09D878E878D859E851C
:104EB0000E946624292F22952F70223028F49F709B
:104EC00039F0811105C00BC0243028F49F7049F4DB
:104ED000805E883020F0C8010E948C0F9F2CF92C36
:104EE00005C0F8019581907F99F7F9CF8F2D6196D4
:104EF0000FB6F894DEBF0FBECDBFDF91CF911F91EB
:104F00000F91FF90EF90DF90CF90BF90AF909F9068
:104F100008951092FD021092FC020E94BA23EEE561
:104F2000F2E086E0DF011D928A95E9F710925B02BC
:104F300010925802109208030E94322280E090E002
:104F40000E94590780E090E00C9443071092FE0203
:104F500086E0EBE8F2E0DF011D928A95E9F70C9418
:104F60008927882341F080959091FE0289238093C0
:104F7000FE020C94BA230895882339F09091FE0222
:104F8000892B8093FE020C94BA230895882309F498
:104F900063C0823869F40E946F0781FF5DC069E3D6
:104FA00089E892E00E9414230E94BA2369E30EC0AC
:104FB000833891F40E946F0780FF4EC063E589E853
:104FC00092E00E9414230E94BA2363E589E892E0EC
:104FD0000E9407230C94BA23843869F40E946F0757
:104FE00082FF3AC067E489E892E00E9414230E949D
:104FF000BA2367E4EBCF9CEF980F913A10F4682F37
:10500000E5CF90E2980F983088F4877021E030E087
:10501000A90102C0440F551F8A95E2F7CA01809585
:105020009091FE0289238093FE02D4CF9BE5980FD6
:10503000933020F480E090E00C94590798E5980FA5
:10504000973120F480E090E00C944307803F20F0FB
:105050000E94C2200C9432220895CF93882309F431
:105060009EC0C82F8238B1F40E946F0781FD97C09F
:1050700069E389E892E00E9414230E94BA232FEF8B
:1050800081EE94E0215080409040E1F700C00000A4
:1050900069E317C08338E1F40E946F0780FD7FC089
:1050A00063E589E892E00E9414230E94BA232FEF5F
:1050B00081EE94E0215080409040E1F700C0000074
:1050C00063E589E892E00E940723CF910C94BA230C
:1050D0008438B1F40E946F0782FD61C067E489E8FB
:1050E00092E00E9414230E94BA232FEF81EE94E0F5
:1050F000215080409040E1F700C0000067E4E1CF1C
:105100008CEF8C0F813A80F4EBE8F2E081E992E0D9
:105110002191C217E1F18E179F07D1F76C2F89E813
:1051200092E00E941423D1CF80E28C0F883068F483
:10513000C77081E090E001C0880FCA95EAF79091AE
:10514000FE02892B8093FE02C0CFEBE5EC0FE3302B
:1051500040F4F0E0E559FE4F808190E0CF910C944F
:105160005907E8E5EC0FE73150F4F0E0EE0FFF1FD0
:10517000E259FE4F80819181CF910C944307C03F4B
:1051800070F08C2F0E948921CF910C9432226C2FC9
:1051900089E892E00E9407230E94BA23BFCFCF91F3
:1051A00008958F929F92AF92BF92CF92DF92EF922B
:1051B000FF92CF93DF93EC01688179818A819B8193
:1051C000611571058105910521F464E279ED8BE5A6
:1051D00097E02DE133EF41E050E00E94752949014D
:1051E0005A019B01AC01A7EAB1E40E9494296B012A
:1051F0007C01ACEEB4EFA50194010E94A229DC0170
:10520000CB018C0D9D1DAE1DBF1DB7FF03C00197C7
:10521000A109B04888839983AA83BB839F77DF91D4
:10522000CF91FF90EF90DF90CF90BF90AF909F9085
:105230008F9008950E94D128089580E091E00E9407
:10524000D1280895A0E0B0E080930001909301017F
:10525000A0930201B09303010895F999FECF92BD86
:1052600081BDF89A992780B50895A6E1B0E044E0A1
:1052700050E00C946729A8E1B0E042E050E00C94C3
:105280006729262FF999FECF92BD81BDF89A019723
:1052900000B4021639F01FBA20BD0FB6F894FA9A7E
:1052A000F99A0FBE08950396272F0E9442290E9463
:1052B0004129252F0E944229242F0C94422901962E
:1052C000272F0E9442290C944129DC01CB01FC01CB
:1052D000F999FECF06C0F2BDE1BDF89A319600B44F
:1052E0000D9241505040B8F70895052E97FB1EF4DB
:1052F00000940E948C2957FD07D00E94A72907FC23
:1053000003D04EF40C948C295095409530952195FE
:105310003F4F4F4F5F4F08959095809570956195E1
:105320007F4F8F4F9F4F08950E94C929A59F900DD1
:10533000B49F900DA49F800D911D11240895B7FF77
:105340000C9494290E949429821B930B0895A1E246
:105350001A2EAA1BBB1BFD010DC0AA1FBB1FEE1FEF
:10536000FF1FA217B307E407F50720F0A21BB30B3A
:10537000E40BF50B661F771F881F991F1A9469F7B6
:1053800060957095809590959B01AC01BD01CF0112
:105390000895A29FB001B39FC001A39F700D811D0E
:1053A0001124911DB29F700D811D1124911D08952E
:1053B000991B79E004C0991F961708F0961B881F67
:1053C0007A95C9F780950895AA1BBB1B51E107C0C8
:1053D000AA1FBB1FA617B70710F0A61BB70B881F85
:1053E000991F5A95A9F780959095BC01CD01089514
:1053F00097FB072E16F4009407D077FD09D00E9482
:10540000E42907FC05D03EF4909581959F4F0895BF
:10541000709561957F4F0895EE0FFF1F0590F491F1
:10542000E02D09940E94C929332312F48A1B9B0B97
:105430000C941C2A0E94C929B7FF0895821B930B64
:105440000895FC014150504030F001900616D1F70C
:105450003197CF010895882799270895F894FFCFB1
:105460000100000001191A1B1C1D1E1F2021220112
:105470000201412063204420E415E01501000102EF
:105480000202020606060909090909090F0F0F0F92
:105490000F0F15151518191919191919191919199D
:1054A00023242525252525253033673666F6F5F492
:1054B000F1C6959392919094969734354081225CF1
:1054C00008DB07B907C208DB08F408818283E20021
:1054D000E900EA00B500B600B700CD008301CC00BA
:1054E0008A0192019401210223022402250226024C
:0C54F00027022A02B300B4006F00700015
:00000001FF
