:100000000C948B040C94D2040C94D2040C94D2045F
:100010000C94D2040C94D2040C94D2040C94D20408
:100020000C94D2040C94D2040C94571E0C94931D7F
:100030000C9453220C94D2040C94D2040C94D20449
:100040000C94D2040C94D2040C94D2040C94D204D8
:100050000C94D2040C945F210C94D2040C94D2041E
:100060000C94D2040C94D2040C94D2040C94D204B8
:100070000C94D2040C94D2040C94D2040C94D204A8
:100080000C94D2040C94D2040C94D2040C94D20498
:100090000C94D2040C94D2040C94D2040C94D20488
:1000A0000C94D2040C94D2040C94D2049F1011111D
:1000B00016111B11201125112A112F11341139117C
:1000C0003E1158115B115E116111641167116A11C3
:1000D0006D1185115C125C1299129912E9120913C3
:1000E000DA14DA144B13371449144914A21BC91B30
:1000F000751DC91B751D151C381C751D3D1D4C1D1E
:10010000292529253C253C2532253C253C253C2517
:100110002925292537253C253C25372500010101C6
:1001200001010101010102020202020202020203B4
:100130000303030303030304040404040404050584
:100140000505050606060606070707070708080847
:1001500008090909090A0A0A0B0B0B0C0C0C0D0DF6
:100160000D0E0E0E0F0F0F1010111111121213138E
:100170001414151516161717181819191A1A1B1B07
:100180001C1D1D1E1E1F2020212222232424252663
:1001900026272829292A2B2C2D2D2E2F303132329B
:1001A000333435363738393A3B3C3D3E3F404142A7
:1001B000434445464748494A4C4D4E4F505153548D
:1001C000555658595A5B5D5E5F6162646566686941
:1001D0006B6C6D6F7072737577787A7B7D7E8082C1
:1001E000838587888A8C8E8F91939596989A9C9E0A
:1001F000A0A2A3A5A7A9ABADAFB1B3B5B7BABCBE1A
:10020000C0C2C4C6C9CBCDCFD1D4D6D8DBDDDFE2E6
:10021000E4E7E9EBEEF0F3F5F8FAFDFF7267626CE4
:10022000696768742074696D657220656E61626CBF
:1002300065642E0A007267626C69676874206D6F6E
:100240006465205B4E4F454550524F4D5D3A202529
:10025000750A007267626C69676874206D6F646507
:10026000205B454550524F4D5D3A2025750A00727E
:1002700067626C69676874207365742068737620A0
:100280005B4E4F454550524F4D5D3A2025752C250C
:10029000752C25750A007267626C69676874207333
:1002A000657420687376205B454550524F4D5D3A2A
:1002B0002025752C25752C25750A007267626C69DE
:1002C000676874207261696E626F7720736574204D
:1002D0006873763A2025642C25642C25642C2575BA
:1002E0000A00FFAA7F55407267626C6967687420D4
:1002F00074696D65722064697361626C652E0A00B1
:100300002223252628292A2C2D2F30323335363822
:100310003A3B3D3E4042434547494A4C4E5051537B
:100320005557595A5C5E6062646668696B6D6F719F
:10033000737577797B7D7F81838587898A8C8E90A1
:10034000929496989A9C9E9FA1A3A5A7A8AAACAEAA
:10035000AFB1B3B4B6B8B9BBBCBEBFC1C2C3C5C6EA
:10036000C7C9CACBCCCDCED0D1D2D2D3D4D5D6D793
:10037000D7D8D9D9DADADBDBDBDCDCDCDCDCDDDDD1
:10038000DDDDDCDCDCDCDCDBDBDBDADAD9D9D8D7C1
:10039000D7D6D5D4D3D2D2D1D0CECDCCCBCAC9C763
:1003A000C6C5C3C2C1BFBEBCBBB9B8B6B4B3B1AF9A
:1003B000AEACAAA8A7A5A3A19F9E9C9A989694923A
:1003C000908E8C8A89878583817F7D7B7977757311
:1003D000716F6D6B6968666462605E5C5A595755EF
:1003E0005351504E4C4A4947454342403E3D3B3AAB
:1003F0003836353332302F2D2C2A29282625232232
:1004000035001E001F0020002100220023002400D0
:100410002500260027002D002E002A0046002B0074
:1004200014001A000800150017002F0031023000D8
:100430001C0018000C0012001300310039000400E9
:100440001600070009000A002602330227020B00EB
:100450000D000E000F0033003400E1001D001B00F2
:100460000600190005002C002C002C0011001000C3
:100470003600370038002800E000E300E200AA0060
:10048000A800A900AC00AE00AB00C45CC25CC35CB9
:10049000C65CC55C005C7267626C696768742064E6
:1004A000697361626C65205B454550524F4D5D3A02
:1004B000207267626C696768745F636F6E666967F4
:1004C0002E656E61626C65203D2025750A0072679D
:1004D000626C6967687420656E61626C65205B455B
:1004E0004550524F4D5D3A207267626C696768747F
:1004F0005F636F6E6669672E656E61626C65203D35
:100500002025750A007267626C6967687420746FD1
:1005100067676C65205B454550524F4D5D3A2072D0
:1005200067626C696768745F636F6E6669672E6582
:100530006E61626C65203D2025750A004445425578
:10054000473A2064697361626C65642E0A00444511
:100550004255473A20656E61626C65642E0A0072EE
:1005600067626C696768745F636F6E6669672E7334
:1005700070656564203D2025640A007267626C69BD
:100580006768745F636F6E6669672E76616C203D85
:100590002025640A007267626C696768745F636F24
:1005A0006E6669672E736174203D2025640A0072AF
:1005B00067626C696768745F636F6E6669672E68EF
:1005C0007565203D2025640A007267686C6967685C
:1005D000745F636F6E6669672E6D6F6465203D2082
:1005E00025640A007267626C696768745F636F6E86
:1005F0006669672E656E61626C65203D2025640A20
:10060000007267626C696768745F636F6E666967C2
:1006100020454550524F4D3A0A007267626C696737
:1006200068745F696E6974207267626C6967687468
:100630005F636F6E6669672E6D6F6465203D203065
:100640002E2057726974652064656661756C74202C
:1006500076616C75657320746F20454550524F4D1F
:100660002E0A007267626C696768745F696E6974EC
:10067000206565636F6E666967206973206E6F74AD
:1006800020656E61626C65642E0A007267626C6937
:100690006768745F696E6974207374617274210A8B
:1006A000007267626C696768745F696E6974206361
:1006B000616C6C65642E0A000A00253031366200D8
:1006C0003A200025303258000A722F632030313230
:1006D000333435363738394142434445460A000001
:1006E000047F3F1F643214643214783C1E1E140AC7
:1006F000050A0025303258006B6579626F617264BB
:100700005F7365745F6C65643A20005B735D004BDA
:100710006579626F6172642073746172742E0A006D
:100720000631FF0974A1010975150026FF00952007
:10073000750881020976150026FF0095207508913D
:1007400002C005010902A10185020901A1000509F4
:1007500019012905150025019505750181029501ED
:10076000750381010501093009311581257F950245
:100770007508810609381581257F95017508810660
:10078000050C0A38021581257F950175088106C080
:10079000C005010980A10185031A81002A83001682
:1007A0000100260300950175108100C0050C0901A8
:1007B000A10185041A01002A9C02160100269C0250
:1007C000950175108100C005010906A101050719F1
:1007D000E029E7150025019508750181029501754D
:1007E0000881010507190029FF150026FF0095065D
:1007F0007508810005081901290595057501910203
:10080000950175039101C05B435D005B445D005B36
:10081000535D005B575D005B525D0009025B0003A6
:100820000100A0FA090400000103010100092111DF
:100830000100012240000705810308000A090401A4
:1008400000010300000009211101000122850007B9
:1008500005820320000A09040200020300000009C7
:100860002111010001222200070583032000010756
:100870000503032000011201100100000008646953
:1008800075000100010203010403300000000C03A5
:10089000490064006F0062006F0000001003470011
:1008A00065006E00650072006900630000000403CB
:1008B00009040A002530325820006B6579626F61A7
:1008C00072645F7265706F72743A2000290A0025A5
:1008D00075002F002575005D280025640020002587
:1008E0006400200025640020002564007C00253081
:1008F0003258006D6F7573656B6579205B62746E3D
:100900007C782079207620685D287265702F61637D
:100910006C293A205B0011241FBECFEFDAE0DEBF66
:10092000CDBF04B603FE27C08091DE029091DF02A6
:10093000A091E002B091E1028730904BA740B04B0C
:10094000D1F41092DE021092DF021092E0021092B7
:10095000E10214BE84B7877F84BF0FB6F894A895D0
:1009600080916000886180936000109260000FBEEB
:10097000E0E0F8E3099511E0A0E0B1E0ECE7F1E593
:1009800002C005900D92A23CB107D9F722E0A2EC7B
:10099000B1E001C01D92AE3DB207E1F70E947916A9
:1009A0000C94BC280C940000FF93EF93E091C201DB
:1009B000F091C301309709F00995EF91FF910895E7
:1009C000FC018591803011F0EFDFFBCF0895FF2708
:1009D000E0E230E247FF0CC0419597FF09C0EDE22D
:1009E0006095709580959095611D711D811D911D7B
:1009F00027FF02C0219530E350E2AA27660F771F38
:100A0000881F991FAA1FA41710F0A41B63955A955D
:100A1000A9F7AA3008F0A95FA05DAF93F39561151F
:100A200071058105910541F7ED3211F4EF93F395CE
:100A3000F21718F43F93F395FBCF8F91B5DFFA953A
:100A4000E1F70895E991F9918591803021F085329F
:100A500019F0AADFF9CF089520E0E89455915532B6
:100A6000C1F3503311F4689455915A3348F45053FC
:100A700090F3220F022E220F220F200D250FF4CF0C
:100A80000EF4219589919991533619F3533729F131
:100A9000533559F1BC0188279927E8945C3621F435
:100AA0008991999168945591543639F446EF7EF0C6
:100AB00077FF0DC08FEF9FEF0AC055374AE039F03E
:100AC000583540E121F0523642E009F00895FF9395
:100AD000EF937DDFEF91FF91B7CFFF93EF93FC0191
:100AE00081918030B9F360DFFBCFFF93EF9368DF34
:100AF000F1CFDF93CF93CDB7DEB72596A3DFCF91AC
:100B0000DF9108950895BF92CF92DF92EF92FF9206
:100B10000F931F93CF93DF93E82EF62EE901E42F76
:100B2000F0E0611106C0E45EFE4FE491BE2E8E2F10
:100B300073C0262F30E0E45EFE4FE491FE2FCE2EF0
:100B4000D12C46E0849FC00111240FEF10E0B801C2
:100B50000E9481284BEA4603D001479FB00D112423
:100B6000AE0DB11DAE0DB11D8A2F880FA80FC801A3
:100B7000821B930BC89EA001C99E500DD89E500D9C
:100B80001124B52EAF9DC0011124892F992778011A
:100B9000E81AF90AC701C89E7001C99EF00CD89ED8
:100BA000F00C1124C8018A1B9109DC01A29FC0012D
:100BB000A39F900DB29F900D1124892F9927081B98
:100BC000190BC09E9001C19E300DD09E300D112496
:100BD000832F6230710591F04CF461157105E1F0DD
:100BE00061307105B9F48E2FEF2D16C06430710598
:100BF00069F044F06630710579F00CC08E2FE52F56
:100C0000B32E0AC0E52FBF2E8F2D06C0852FBE2E16
:100C1000E32F02C0852FBF2CE9838883BA82DF913E
:100C2000CF911F910F91FF90EF90DF90CF90BF90E9
:100C3000089590910F0292FF0DC0282F287128303F
:100C400019F4877F846006C0282F2471243011F4A2
:100C50008B7F886093FF0DC0282F2871283119F4ED
:100C6000877E846106C0282F2471243111F48B7E85
:100C700088612091100220FF0DC0382F3871383064
:100C800019F4877F816006C0382F3171313011F43B
:100C90008E7F886021FF0DC0282F2871283119F41C
:100CA000877E816106C0282F2171213111F48E7E4B
:100CB000886194FD877E08951F93CF93DF93CDB70E
:100CC000DEB767970FB6F894DEBF0FBECDBF4B8B74
:100CD0005C8B6D8B7E8B8F8B86E09E01235F3F4FFD
:100CE000D901E82F1D92EA95E9F795E0FE01739688
:100CF000D90101900D929A95E1F7F901DE0117965D
:100D000001900D928A95E1F7CE0107960E94402549
:100D1000811136C086E0FE013796DE011196019002
:100D20000D928A95E1F77F816885EA85FB8530978A
:100D300039F16F3F11F47F3F19F12091680230E0E3
:100D4000C9010196877099274091990250E0841754
:100D5000950779F179836A83FD83EC8396E0929F0E
:100D6000D001939FB00D1124A759BD4FFE013196BC
:100D700001900D929A95E1F7809368020E94B42445
:100D800016E08091990290916802891701F1189FED
:100D9000C001112487599D4F0E9440258823B9F036
:100DA0008091990290E0019687709927809399022B
:100DB000E8CF0E9419271092680210929902E2E689
:100DC000F2E086E0DF011D928A95E9F7D9CF6796B8
:100DD0000FB6F894DEBF0FBECDBFDF91CF911F914C
:100DE00008952091FE013091FF018217930771F061
:100DF0009093FF018093FE01E0911202F0911302A3
:100E0000309721F00084F185E02D09940895209118
:100E1000FC013091FD018217930771F09093FD0161
:100E20008093FC01E0911202F0911302309721F0BF
:100E30000680F781E02D09940895E0911202F09167
:100E40001302309721F00190F081E02D099480E0A9
:100E500008950F931F93CF93DF93C62FD42F022FA4
:100E6000FC0182818823C9F0609300020E94AF21B7
:100E70009093FB018093FA0180E28C0F883008F098
:100E80005EC0C77081E001C0880FCA95EAF7DF91A4
:100E9000CF911F910F910C942F27109100021613E0
:100EA0003EC08091FA019091FB010E948521883C0F
:100EB0009105A8F5C0E2CD0F1D17B9F080E2810FB2
:100EC000883040F4177081E001C0880F1A95EAF766
:100ED0000E942427C83048F481E09D2F977001C0FC
:100EE000880F9A95EAF70E942F27802F0E94A0274B
:100EF000093349F4FFEF27EE83E0F15020408040B2
:100F0000E1F700C00000802F0E943927C830B8F4F4
:100F1000D77081E001C0880FDA95EAF70AC080E255
:100F20008C0F883060F4C77081E001C0880FCA95CB
:100F3000EAF7DF91CF911F910F910C942427DF9155
:100F4000CF911F910F910895882311F0FA0101C0EC
:100F5000FB01099410922B028091360280FF08C099
:100F600087EE92E09F938F930E9479050F900F90E8
:100F700008958091250280FF0AC0809A81B38E7FF8
:100F800091B391602FB7F894EAECF1E00DC080E0E6
:100F900090E0FC01E653FE4F11821082128203960C
:100FA00080339105B1F7E9CF31E0EA3FF30789F0EB
:100FB000319148E091BB000000C037FF81BB330F87
:100FC000000000C000C000C081BB00C04A9591F77E
:100FD000EBCF2FBF87EC90E00197F1F700C0000046
:100FE0000895EF92FF920F931F93CF93DF937C01AD
:100FF000CAECD1E000E010E0F7018481083011056F
:101000001CF4882339F002C0811104C09E01409174
:10101000280202C09E0140E06091270280912602D2
:101020000E9483050F5F1F4F23960031110521F7A2
:101030000E94B907F701248130E02F5F3F4F2170F4
:1010400033272483DF91CF911F910F91FF90EF9071
:101050000895EF92FF920F931F93CF93DF93EC01CC
:101060002C813D812F5F3F4F217033273D832C839F
:101070008AECE82E81E0F82E10E005E5812F8695B8
:101080004C815D81480F511D842F817097014091E3
:10109000280260912702809F802D11240E948305E1
:1010A0001F5F83E0E80EF11C103141F7DF91CF9113
:1010B0001F910F91FF90EF900C94B907CF93DF939E
:1010C00080E090E0FC01E653FE4F11821082128214
:1010D000039680339105B1F7C0E0D0E0EC2FF0E04B
:1010E0008091C801082E000C990B9F01220F331F1D
:1010F000E20FF31FC817D907A4F080910C01082E46
:10110000000C990B8C179D0764F09F0126533E4FEE
:101110004091280260912702809126020E94830557
:1011200005C0E653FE4F1182108212822196C03113
:10113000D105A1F60E94B90780910B019091C801D9
:10114000980F9093C80120910C01280F20930C0157
:10115000121614F49F301CF0819580930B01DF91DF
:10116000CF910895AF92BF92CF92DF92EF92FF920C
:101170000F931F93CF93DF93FC01828180FF03C005
:10118000BB24BA9402C0BB24B3942AECE22E21E023
:10119000F22E0CEC11E0C0E0D0E0F80131971082A3
:1011A000F7011082F801108294E0C92ED12CA12CF5
:1011B0008091C7018A0D813114F08F7002C087FDC4
:1011C000805F082E000C990BC817D90791F4809105
:1011D00028028C9DA0018D9D500D11245595479599
:1011E00055954795970160912702809126020E94AC
:1011F0008305AB0CF1E0CF1AD108D1F6219683E03C
:10120000E80EF11C0D5F1F4FC031D10531F60E9471
:10121000B9078091C70191E0B91206C0811102C0DF
:101220008FE006C0815004C090E001968F7099272E
:101230008093C701DF91CF911F910F91FF90EF90A5
:10124000DF90CF90BF90AF900895EF92FF921F93E1
:10125000CF93DF93EC018AECE82E81E0F82E10E0CA
:101260008C8197014091280260912702810F0E9492
:101270008305115F83E0E80EF11C103F89F70E949F
:10128000B9078A819C8180FF02C09F5F01C0915095
:101290009C83DF91CF911F91FF90EF9008959091E3
:1012A000250290FF0FC020E030E0F901E653FE4F29
:1012B0008183608342832D5F3F4F20333105A9F73F
:1012C0000C94B90708950F931F93CF93DF9300D029
:1012D0001F92CDB7DEB78C018091C90181110AC080
:1012E0009E012F5F3F4F4FEF6FEF0E9483058A8172
:1012F0008093C901F8018481813051F028F0823057
:1013000061F44091C9010AC08091C90140E007C061
:101310006091C90140E080E003C040E080E060E00F
:101320000E944F09F801248130E0C901019663E071
:1013300070E00E94952884830F900F900F90DF91AA
:10134000CF911F910F910895CF93DF9300D01F92FB
:10135000CDB7DEB79091250290FF0AC09E012F5FA6
:101360003F4F0E9483054B8169818A810E944F090A
:101370000F900F900F90DF91CF910895CF93DF934F
:10138000EC01E5E2F2E0438162818C810E94A409D4
:101390008C818F5F8C83DF91CF910895CF93DF9302
:1013A000EC01EC81F0E0E050FD4F4491E5E2F2E029
:1013B000628181810E94A4098C818F5F8C83DF917F
:1013C000CF91089580912502282F269530E0211590
:1013D000310519F48170826005C02532310524F091
:1013E00081708864809325020895CF93DF9300D0A5
:1013F00000D0CDB7DEB7AB01BC0149835A836B8304
:101400007C830E94E20949815A816B817C8188E05A
:1014100090E00F900F900F900F90DF91CF910C9470
:1014200053285F926F927F928F929F92AF92BF925A
:10143000CF92DF92EF92FF920F931F93CF93DF93A0
:1014400000D000D0CDB7DEB7182FB62E042F522E05
:101450009091250290FFB2C0E92FE695AE2FB0E043
:10146000A75BBE4F8C9180932A029E7F923061F4DD
:101470009E012F5F3F4F812F0E9483054B81698121
:101480008A810E944F0960C0823019F400912802BD
:101490005BC0863019F41091260256C08930D9F30A
:1014A000893109F051C0E9518E2F80958170A82EA5
:1014B000E695F0E0EE51FD4FC590D4903AEC832EC6
:1014C00031E0932EE12CF12CDD244BEB642E42E035
:1014D000742EEC9CC001ED9C900DFC9C900D112491
:1014E00024E0969587952A95E1F7AA2011F0810FBF
:1014F00003C0212F281B822F9091360290FF13C02A
:10150000DF92CF921F92AF921F928F93FF92EF9232
:101510007F926F928C830E9479050FB6F894DEBF9C
:101520000FBECDBF8C819401402F6B2D0E9483058F
:101530003FEFE31AF30A83E0880E911C90E1E9166D
:10154000F10439F60E94B90710932602B0922702DF
:10155000009328025520E9F060912502709126023F
:1015600080912702909128020E94F509809136020D
:1015700080FF24C0809128021F928F9380912702C0
:101580001F928F93809126021F928F9386E992E09B
:101590000CC08091360280FF11C01F920F931F92E2
:1015A000BF921F921F938FE692E09F938F930E94AA
:1015B00079050FB6F894DEBF0FBECDBF0F900F9028
:1015C0000F900F90DF91CF911F910F91FF90EF90AF
:1015D000DF90CF90BF90AF909F908F907F906F9053
:1015E0005F900895E5E2F2E0438128E0421B08F4B1
:1015F00040E021E0628181810C94110AE5E2F2E091
:10160000438128E0420F08F44FEF21E0628181819D
:101610000C94110AE5E2F2E0628128E0621B08F412
:1016200060E021E0438181810C94110AE5E2F2E05F
:10163000628128E0620F08F46FEF21E0438181812D
:101640000C94110AE5E2F2E0818121E0438162819C
:1016500088500C94110AE5E2F2E0818121E0438197
:101660006281885F0C94110A80912902882319F005
:101670008150809329026091250270912602809109
:101680002702909128020C94F50980912902833059
:1016900018F48F5F809329026091250270912602D1
:1016A00080912702909128020C94F50990912502CF
:1016B00090FF68C09170811102C0926006C08532AF
:1016C00010F0986402C0880F982B9093250266232F
:1016D000B1F06091250270912602809127029091CD
:1016E00028020E94F5098091360280FF1BC080917C
:1016F000250286951F928F9383E592E00BC080911F
:10170000360280FF0FC08091250286951F928F932D
:1017100085E392E09F938F930E9479050F900F903D
:101720000F900F9060912502669570E04BE050E0BD
:1017300080E091E00E94AF28892B19F00E94AA074F
:1017400015C081E080932B020E94AF21909320026C
:1017500080931F028091360280FF08C08CE192E0E6
:101760009F938F930E9479050F900F9081E0809353
:10177000220220E0409128026091270280912602F7
:101780000C94110A0895809125028695815009F4E0
:1017900084E261E00C94560B8091250286958F5F60
:1017A000853208F081E061E00C94560B909125029F
:1017B00090FF04C09695981740F003C0811105C0B2
:1017C00090E0961710F40C94CC0B61E00C94560B3F
:1017D000E5E2F2E083E0808311828FEF82838383EE
:1017E000148260817181828193810C94F5096F92DA
:1017F0007F928F929F92AF92BF92CF92DF92EF92A1
:10180000FF920F931F93CF93DF930EE611E0A5E0B5
:10181000B2E0B12CEE24E394F12C4D016D907C905C
:10182000119711961C921E92E80189918E01E82F62
:10183000E295EF70F0E091A18F70970101C0220F47
:101840008A95EAF7892F822B81A382A1A22EA094E8
:101850008A2182A3D0EADA95F1F783E7C82E81E0E6
:10186000D82E60E070E0E60189916E01C82FC29524
:10187000CF70D0E048A1CD91DC91119750E08F70EE
:1018800002C0559547958A95E2F740FD08C0C7010B
:10189000062E02C0880F991F0A94E2F702C080E06A
:1018A00090E0C82BD92B1196DC93CE936F5F7F4FBE
:1018B0006F307105C1F681A1A822A1A282A1282BB7
:1018C00022A3129681E0F401208131816216730611
:1018D00009F480E0B82AF2E0AF30BF0709F09DCFED
:1018E000BB2049F081E08093C6010E94AF21909314
:1018F000C5018093C4018091C601882391F1809134
:10190000C4019091C5010E948521069750F18091F4
:101910000502909106029093160280931502809121
:101920000702909108029093180280931702809109
:10193000090290910A0290931A02809319028091F1
:101940000B0290910C0290931C0280931B028091D9
:101950000D0290910E0290931E0280931D02109230
:10196000C6018B2DDF91CF911F910F91FF90EF90CA
:10197000DF90CF90BF90AF909F908F907F906F90AF
:101980000895CF93DF932FE0729FF00111243BE481
:10199000839FE00DF11D1124E60FF11DEE0FFF1FD7
:1019A000E050FC4FC591D491CE01C238D10569F108
:1019B000B0F4C133D10509F475C048F4C932D1057A
:1019C00009F469C0CA32D10509F473C085C0C533B2
:1019D000D10509F459C0C933D105B9F07DC0C33E62
:1019E000D10571F138F4C03ED105B1F0C23ED10548
:1019F00011F172C0C63ED105B9F1C73ED105C9F19A
:101A0000C43ED10509F068C024C020910F0220FD1A
:101A10005DC021FD5BC060C020910F0220FD50C061
:101A20002091100220FF68C180910F0284FD62C1E5
:101A300083EE90E061C120910F0222FF5DC1F4CFDF
:101A400080910F0282FD3FC08091100280FD3EC058
:101A5000EBCF2091100221FF4FC180910F0284FD36
:101A600049C187EE90E048C120910F0223FF44C195
:101A7000F4CF80910F0283FD2CC08091100281FF72
:101A8000ECCF84EE90E038C120910F0225FF34C1E5
:101A900089E290E031C120910F0225FF2DC185E33D
:101AA00090E02AC120910F0226FF26C18AE290E031
:101AB00023C120910F0226FF1FC181E390E01CC1CA
:101AC00089E390E019C182EE90E016C180EE90E0CB
:101AD00013C186EE90E010C1C11530E5D30708F0C0
:101AE00066C0C11540E4D40728F0FE01FF70CF01A5
:101AF000906A02C1C83ED105A8F5C03ED10508F0E4
:101B0000FBC0C83AD105B0F4C53AD10548F0EC2F76
:101B1000E55AF0E0E85EFE4F808190E09064ECC012
:101B2000C130D10509F4E8C008F4E4C0249708F4F2
:101B3000E1C0E2C0CF3BD10558F4EC2FE85AF0E009
:101B4000EE0FFF1FE55EFE4F808191819464D4C04B
:101B5000C03CD10508F4CEC0FE01EE0FFF1FE456D5
:101B6000F0400EC0C11520E2D20768F0C11540E375
:101B7000D407A8F4FE01FF70EE0FFF1FE45EFE4FD6
:101B800085919491B9C0C11531E0D30708F0B4C074
:101B9000C03FD10508F4AEC0CE019065ADC0CE0106
:101BA0009927D3FF02C0986CA7C0906CA5C0C1153F
:101BB00085E5D80708F05CC0C11594E5D90730F079
:101BC000FC2FEE27CF01846F906A96C0C11522E5E5
:101BD000D20738F5C11531E5D307E8F48C2F8370AF
:101BE00021E030E002C0220F331F8A95E2F73C6803
:101BF000CE0174E0969587957A95E1F78370382B3E
:101C0000EC2FEF70E695E69540E2E49FC0011124C9
:101C1000822B932B71C0FC2FEE27CF01816F906A2E
:101C20006BC02C2F26952695AE0143705527C11504
:101C3000D34578F480E2289F9001112481E090E060
:101C400002C0880F991F4A95E2F7822B932B9C685C
:101C500053C090E2299F9001112481E090E002C0DE
:101C6000880F991F4A95E2F7822B932B9A6844C0FC
:101C7000C11599E5D907B8F4C11528E5D20730F0A8
:101C8000FC2FEE27CF01806F906A36C0C11536E574
:101C9000D30780F58C2F0E9419068F7190E0982F42
:101CA0008827906229C0C1154AE5D40790F48C2F8B
:101CB0008F700E941906FE0194E0F695E7959A95BB
:101CC000E1F7EF70F0E0FE2FEE27F0699F01282B7F
:101CD0000FC0CE0190568115904260F48D2F8F7108
:101CE0000E941906FE01FF27F0628F719F01382BB9
:101CF000C90102C080E090E0DF91CF9108954F923A
:101D00005F926F927F92AF92BF92CF92DF92EF92EB
:101D1000FF920F931F93CF93DF93CDB7DEB7279733
:101D20000FB6F894DEBF0FBECDBFFC01D08011818D
:101D300083819481892B09F473C61F3F21F40FEF2F
:101D4000D01609F46DC67F0185E0DE011196019081
:101D50000D928A95E1F7F701228189819A812223E8
:101D600049F00E949A23082F682F89819A810E9446
:101D7000122403C00E94E623082F2FE0129FF001D7
:101D800011243BE4039FE00DF11D1124ED0DF11D25
:101D9000EE0FFF1FE050FC4F05911491033F8CE5BF
:101DA0001807C1F180F4083DECE51E07C9F0093DB4
:101DB000FCE51F07D9F1073D2CE51207D1F526E216
:101DC00041EE61EE10C0053F3CE5130759F130F1DB
:101DD000063F9CE5190769F527E245EE66EE03C06C
:101DE00027E245EE65EEC70127960FB6F894DEBFF1
:101DF0000FBECDBFDF91CF911F910F91FF90EF905C
:101E0000DF90CF90BF90AF907F906F905F904F909A
:101E10000C94290726E241EE60EEE5CF27E245EE7D
:101E200064EEE1CF26E241EE62EEDDCF28E241E052
:101E3000D9CFF7019281992309F452C1109200027F
:101E40000230FCE51F0708F435C106312CE5120706
:101E500038F098012A5F3C452930310508F02AC145
:101E60000E94A2229093100280930F0200313CE561
:101E7000130709F4C3C008F041C008309CE51907F6
:101E800009F49AC0F0F40430FCE51F0709F487C098
:101E900068F402303CE5130709F477C003301C45B1
:101EA00009F0E5C080910F02826076C006309CE5A3
:101EB000190709F46EC008F07BC080910F0288609A
:101EC0006BC00C30FCE51F0709F485C068F40A30CC
:101ED0003CE5130709F474C008F079C00E94192783
:101EE00080910F02806858C00E309CE5190709F4F4
:101EF00076C008F07FC080910F028BC00B3FFCE5DD
:101F00001F0709F44FC018F503313CE5130709F426
:101F10007DC078F401319CE5190709F473C00231E2
:101F20001C4509F0A4C00E94192780910F028F77E9
:101F300033C00531FCE51F0709F472C008F486C000
:101F40000A3F1C4509F093C0809110023EC00F3F2C
:101F50008CE5180709F45FC058F40D3FECE51E0747
:101F600009F444C008F43FC08091100282602DC083
:101F700001302DE5120709F475C008F45DC0023088
:101F80001D4509F074C060E06EC080910F02816051
:101F900003C080910F02806180930F0268C080911E
:101FA0000F0211C0809110028260809310025FC006
:101FB00080910F028062F0CF80910F028064ECCF9D
:101FC00080910F0288608460E7CF8160EECF8091BE
:101FD0000F028E7FE1CF80910F028D7FDDCF809148
:101FE0000F02877FD9CF8091100218C08091100214
:101FF0008D7FDBCF80910F028F7ECECF80910F023D
:102000008F7DCACF80910F028F7BC6CF80910F0248
:10201000877F8B7FC1CF809110028D7F8E7FC5CF50
:1020200080910F0282FB222720F991E0922790FBFA
:1020300082F990FB83F9B0CF80911002982F909590
:1020400091708E7F892B90FB81F9AFCF0E94192769
:1020500080910F0287FB222720F991E0922790FBC5
:1020600087F99ACF61E08EE090E00E94412860916C
:102070000F021091100284E090E00E944128612F2D
:1020800081E290E00E94412827960FB6F894DEBFC7
:102090000FBECDBFDF91CF911F910F91FF90EF90B9
:1020A000DF90CF90BF90AF907F906F905F904F90F8
:1020B0000C9419278091D3020631FCE51F0799F58E
:1020C0008A7A91E009F490E090930102911102C0A4
:1020D00069E201C065E38AE592E00E9488220DC0B2
:1020E00006311C4509F0A1C180910102811196C4FD
:1020F00069E28AE592E00E947C2227960FB6F89466
:10210000DEBF0FBECDBFDF91CF911F910F91FF902A
:10211000EF90DF90CF90BF90AF907F906F905F90E7
:102120004F900C9432238272F801E25CFC45E4315A
:10213000F10508F002C1EA5AFF4F0C94A9288091DA
:10214000360280FF10C080912502809581701F9219
:102150008F9385E095E09F938F930E9479050F9070
:102160000F900F900F908091250280FF41C08E7FCD
:1021700080932502609125027091260280912702AA
:10218000909128020E94F5098091360280FF0FC0CD
:102190008091250281701F928F9386E994E09F932E
:1021A0008F930E9479050F900F900F900F900E94CF
:1021B000AA079FEFE0E7F2E09150E040F040E1F73E
:1021C00000C0000027960FB6F894DEBF0FBECDBF4B
:1021D000DF91CF911F910F91FF90EF90DF90CF9003
:1021E000BF90AF907F906F905F904F900C94B90725
:1021F0008160809325028091360280FF0DC01F927E
:1022000081E08F938EEC94E09F938F930E947905E9
:102210000F900F900F900F908091250261E08695AE
:1022200076C043EC5BE06CEC7BE02CC04CEC5BE0FC
:1022300063EC7BE027C042E25BE06BE27BE022C024
:102240004BE25BE062E27BE01DC04AE05BE066E1FE
:102250007BE018C046E15BE06AE07BE013C042EF40
:102260005AE06EEF7AE00EC04EEF5AE062EF7AE08D
:1022700009C044E35BE065E47BE004C045E45BE067
:1022800064E37BE027960FB6F894DEBF0FBECDBFA8
:10229000DF91CF911F910F91FF90EF90DF90CF9042
:1022A000BF90AF907F906F905F904F900C94A40779
:1022B00061E081E02CC065E082E011C068E086E06A
:1022C0000EC06EE089E00BC064E18FE008C067E1FA
:1022D00085E105C061E088E11AC062E289E12796E4
:1022E0000FB6F894DEBF0FBECDBFDF91CF911F9127
:1022F0000F91FF90EF90DF90CF90BF90AF907F90C5
:102300006F905F904F900C94D60B61E083E227961C
:102310000FB6F894DEBF0FBECDBFDF91CF911F91F6
:102320000F91FF90EF90DF90CF90BF90AF907F9094
:102330006F905F904F900C94560B01302CE5120774
:10234000C1F10E3D3CE5130709F459C001151C45C8
:1023500009F06BC00E9419279FEFE4E3FCE0915065
:10236000E040F040E1F700C0000081E08093E00031
:1023700080E28093D8001092C9008FE19EE401971B
:10238000F1F700C0000087E090EBDC018093DE02F3
:102390009093DF02A093E002B093E1029CE088E119
:1023A0000FB6F894A895809360000FBE90936000DC
:1023B000FFCF80913602982F9095917090FB80F915
:1023C00080933602992319F08EE495E002C08CE3E5
:1023D00095E027960FB6F894DEBF0FBECDBFDF9114
:1023E000CF911F910F91FF90EF90DF90CF90BF9012
:1023F000AF907F906F905F904F900C94E004279681
:102400000FB6F894DEBF0FBECDBFDF91CF911F9105
:102410000F91FF90EF90DF90CF90BF90AF907F90A3
:102420006F905F904F900C94B322F701008111815F
:10243000992349F0C8010E949A23D82E682FC80119
:102440000E94122404C0C8010E94E623D82EB801BD
:102450008D2D0E94C10C182F282FF70105810295A0
:102460000F70B280B1101092D2028091D0028770AA
:1024700099F0BB2089F080E2810F883068F082E01B
:102480002F839E830E9470248091D0028770AA249B
:10249000A3942F819E818111A12CC92EC2948FE01B
:1024A000C822D12CFCE0CF16D10408F083C2F6017B
:1024B000E659FF4F0C94A928892F807F9F70092F20
:1024C000882311F00295007FBB20B9F0002309F4A6
:1024D0005CC280E2810F883010F0211106C090911B
:1024E000D302092B0093D30205C09091D202092B8D
:1024F0000093D2020E94322348C2812F2F830E9470
:1025000039272F81002309F455C2105E0095183039
:1025100010F0211106C09091D30209230093D30239
:1025200005C09091D20209230093D2020E94322367
:1025300041C2392F307F892F8F70303211F0829550
:10254000807F222319F02130E9F026C0BB2081F0E2
:102550002091D402002351F0013041F4982F922BA6
:10256000291709F427C29093D40224C2822B1EC0DB
:10257000002319F0013009F41DC28E830E942C2320
:102580008E8124C0BB2021F0063008F013C20EC09B
:10259000053008F00FC21AC0BB2059F0002331F0FB
:1025A000F701958190FFF1C19F7095830E942F27BD
:1025B00001C2002359F0193309F0F9C1FFEF07EE0A
:1025C00023E0F15000402040E1F7EFC10E942427B2
:1025D000F1C1292F26952695237030E0211531056C
:1025E00021F02130310559F0E5C1BB2019F0812FD0
:1025F000937002C080E090E00E940707E4C1BB2016
:1026000019F0812F937002C080E090E00E94F106E3
:10261000DAC1BB20F9F0153F51F0163F71F0143FBD
:10262000A9F4809102029091030281600BC0809115
:10263000020290910302826005C080910202909193
:10264000030284609093030280930202812F0E9410
:10265000F7201EC0153F51F0163F71F0143FA9F44A
:1026600080910202909103028E7F0BC08091020242
:10267000909103028D7F05C0809102029091030228
:102680008B7F9093030280930202812F0E9430205F
:102690000E94BB2198C1892F837009F070C0B110CE
:1026A00090C1812F829586958770880F880F412F62
:1026B0004F7050E060E070E02A013B01082E04C03A
:1026C000440C551C661C771C0A94D2F714FF12C0E8
:1026D0000FE010E020E030E004C0000F111F221FC7
:1026E000331F8A95D2F7B901A8014095509560959E
:1026F000709503C040E050E0BA01969596959370AE
:10270000892F90E08230910529F183309105C9F03D
:102710000091D5021091D6022091D7023091D802B3
:10272000019759F04429552966297729CB01BA0127
:1027300060237123822393230AC0402A512A622AEC
:10274000732ACB01BA0164297529862997290E9429
:10275000AA2437C144295529662977298091D502B1
:102760009091D602A091D702B091D8028A019B0124
:10277000082719272A273B27C901B801E8CFBB2022
:1027800019F0892F817001C08695882309F419C139
:10279000812F829586958770880F880F412F4F7003
:1027A00050E060E070E02A013B01082E04C0440CB8
:1027B000551C661C771C0A94D2F714FF12C00FE058
:1027C00010E020E030E004C0000F111F221F331F73
:1027D0008A95D2F7B901A8014095509560957095FA
:1027E00003C040E050E0BA01969596959370892F0A
:1027F00090E082309105E9F08330910579F1009104
:10280000CC021091CD022091CE023091CF020197DF
:1028100059F04429552966297729CB01BA0160234B
:1028200071238223932320C0402A512A622A732ACB
:1028300015C044295529662977298091CC029091A9
:10284000CD02A091CE02B091CF028A019B01082750
:1028500019272A273B27C901B80106C0CB01BA01B5
:1028600064297529862997290E944124AAC0092F25
:102870000F70BB2039F0802F0E948924812F0E9485
:102880002F279FC0812F0E942427802F0E944B2436
:1028900098C0812F223FD1F128F4203F49F0213FF9
:1028A00081F16EC0233FC9F1243F09F44EC068C0D6
:1028B000BB2019F1053008F07DC0292F2F7181E070
:1028C00090E0A0E0B0E0AC01BD0104C0440F551F92
:1028D000661F771F2A95D2F78091CC029091CD0286
:1028E000A091CE02B091CF028A019B01082719273F
:1028F0002A273B27C901B80125C0063008F05AC075
:10290000DCCFBB2029F0892F8F712EC0BB20D9F3DB
:10291000892F8F710E944B244DC0BB2081F0292F3D
:102920002F7181E090E0A0E0B0E0BC01CD0104C0D7
:10293000660F771F881F991F2A95D2F703C060E0A2
:1029400070E0CB010E94412435C0BB2081F0192FDB
:102950001F71812F0E94892428E0129FC001112439
:1029600083608093D002812F0E94892423C081E05C
:102970000E9470240230F0F082E00E9470241AC09D
:10298000BB2039F0002309F4BECF812F0E94A0277D
:1029900011C0002309F4BCCF893349F43FEF87EE1F
:1029A00093E0315080409040E1F700C00000812F5B
:1029B0000E943927E8E0CE1AD108F4E0CF16D104FE
:1029C00010F40E941D07AA2059F18091D00280FDC9
:1029D00027C0F70112828595859585950E948924E7
:1029E000C7010E947F0E8091D002859585958595BF
:1029F00027960FB6F894DEBF0FBECDBFDF91CF9103
:102A00001F910F91FF90EF90DF90CF90BF90AF900C
:102A10007F906F905F904F900C944B2465E369CB4F
:102A200027960FB6F894DEBF0FBECDBFDF91CF91D2
:102A30001F910F91FF90EF90DF90CF90BF90AF90DC
:102A40007F906F905F904F9008959FB7F894109289
:102A500041029FBF90915002943009F057C090916D
:102A6000E9009F703091EC00232F217030FD20E8A9
:102A7000922B23E02093E9002091EB0020FF43C03C
:102A80002091EE0027FF3FC020910402222321F075
:102A90002091E80025FF37C01092040226E0309113
:102AA000E80035FD15C030915002343061F53091A9
:102AB000EB0035FD28C0215021F481E08093040211
:102AC00022C0EFE9FFE03197F1F700C00000E7CF47
:102AD0008093F1008091E80085FD0AC08091E800B4
:102AE00080FFFCCF8091E8008E778093E80006C0DD
:102AF0008FB7F89421E0209341028FBF9F7090938D
:102B0000E90080E008959F709093E9008FEF0895A9
:102B10002091E4003091E50095E64091EC00842F8F
:102B2000817040FF22C08091E80080FD1CC0809130
:102B30005002882391F0853091F08091EB0085FD63
:102B400010C04091E4005091E5004217530729F36B
:102B50009A01915011F784E0089582E0089583E08E
:102B6000089581E0089580E008954091E80042FFD3
:102B7000DECF08958091520287FF11C08091E80056
:102B800082FD05C0809150028111F8CF11C0809163
:102B9000E8008B770BC080915002882349F0809128
:102BA000E80080FFF8CF8091E8008E778093E800FE
:102BB0000895982F973058F59093E900981739F0B9
:102BC0007091EC002091ED005091F00003C0242F93
:102BD000762F50E021FF19C03091EB003E7F3093FB
:102BE000EB003091ED003D7F3093ED003091EB0034
:102BF00031603093EB007093EC002093ED00509324
:102C0000F0002091EE0027FF07C09F5FD3CF8F70A9
:102C10008093E90081E0089580E0089520915802B2
:102C2000309159022617370748F06115710539F4BC
:102C30002091E8002E772093E80001C0B90140E020
:102C400061157105A9F120915002222309F443C0B6
:102C5000253009F442C02091E80023FD40C02091B6
:102C6000E80022FD32C02091E80020FFE9CF40912A
:102C7000F3002091F20030E0342BFC01CF0161150C
:102C8000710559F02830310540F481918093F100AD
:102C9000615071092F5F3F4FF1CF41E0283031057E
:102CA00009F040E02091E8002E772093E800C8CF9B
:102CB0004111C9CF0AC080915002882361F085304C
:102CC00061F08091E80083FD0AC08091E80082FFF6
:102CD000F2CF80E0089582E0089583E0089581E0D6
:102CE000089580915002843011F081E0089582E0CF
:102CF0000895CF93DF93CDB7DEB72D970FB6F89435
:102D0000DEBF0FBECDBF84B7877F84BF0FB6F894F8
:102D1000A8958091600088618093600010926000A7
:102D20000FBE90E080E80FB6F89480936100909316
:102D300061000FBE85B7806885BF85B7806885BF95
:102D40000E94D71D0E94F61D8091E200846080934E
:102D5000E20085E295E19093C3018093C2017894EB
:102D6000809150028823A1F01091E9001F7090918A
:102D7000EC00892F817090FD80E8182B1092E900FB
:102D80008091E80083FD0E94BE1A1F701093E90035
:102D900082E084BD93E095BD9AEF97BD80936E006D
:102DA000AEE6B1E041E050E025E02A0F8D91E82F3A
:102DB000E295EF70F0E031A18F70BA0102C0660FAA
:102DC000771F8A95E2F7CB01962F9095932391A3D5
:102DD00092A1892B82A32A13E9CFA3E7B1E041E0B6
:102DE00050E02FE02A0F8D91E82FE295EF70F0E090
:102DF00031A18F70BA0102C0660F771F8A95E2F782
:102E0000CB01962F9095932391A392A1892B82A316
:102E10002A13E9CFE5E0F2E0A5E1B2E011921192C8
:102E20001D921D9272E0EF30F707C1F780E090E04D
:102E30000E943B288C3E9E4F11F00E94B32280E0FE
:102E400090E00E943B288C3E9E4F11F00E94B322DE
:102E500082E090E00E942D28809336020E94A222F8
:102E60009093100280930F0283E090E00E942D283F
:102E7000682F70E080E090E00E94AA248091110207
:102E80008111E0C08091360280FF08C081EA96E09F
:102E90009F938F930E9479050F900F908091360237
:102EA00080FF08C08BE896E09F938F930E9479057E
:102EB0000F900F9080E090E00E943B288C3E9E4F48
:102EC00081F08091360280FF08C083E696E09F93F0
:102ED0008F930E9479050F900F900E94B3220E9459
:102EE000E80B88E090E00E943528609325027093FB
:102EF000260280932702909328026E7FD1F480915E
:102F0000360280FF08C08AE196E09F938F930E946B
:102F100079050F900F900E94E80B88E090E00E94E6
:102F200035286093250270932602809327029093A0
:102F300028020E94E2098091360280FF08C081E0E9
:102F400096E09F938F930E9479050F900F90809148
:102F5000360280FF0FC08091250281701F928F93EF
:102F600084EE95E09F938F930E9479050F900F90C8
:102F70000F900F908091360280FF0FC08091250244
:102F800086951F928F9389EC95E09F938F930E9473
:102F900079050F900F900F900F908091360280FF6F
:102FA0000EC0809126021F928F938FEA95E09F9327
:102FB0008F930E9479050F900F900F900F90809142
:102FC000360280FF0EC0809127021F928F9385E901
:102FD00095E09F938F930E9479050F900F900F902B
:102FE0000F908091360280FF0EC0809128021F92C0
:102FF0008F938BE795E09F938F930E9479050F90B5
:103000000F900F900F908091360280FF0EC080913C
:1030100029021F928F938FE595E09F938F930E94D3
:1030200079050F900F900F900F9010922B028091C6
:10303000250280FF04C060E086950E94560B81E067
:10304000809311028DE091E090931302809312021D
:103050008FE097E00E94E004BAEB2B2EB6E03B2E07
:1030600080915002853009F03FC08BE097E00E94CC
:10307000E00480915002843021F11092140220E487
:1030800088E190E00FB6F894A895809360000FBE99
:103090002093600083B7817F846083BF83B78160A2
:1030A00083BF7894889583B78E7F83BF0FB6F894DB
:1030B000A895809160008861809360001092600004
:1030C0000FBE80914F02882309F4CACF0E94F70BEC
:1030D000E5E1F2E081919191892B09F0FEC122E0B6
:1030E000EF31F207B9F7BCCF0E94F70BF7E3AF2E31
:1030F000F2E0BF2EA5E18A2EA2E09A2E00E010E0B9
:103100000B87D401CD90DD904D01F501E190F19058
:103110005F01EC24FD24E114F104B1F40F5F1F4FB3
:103120000530110569F78FEF8E838F8318860E9413
:10313000AF218160782F9A8789874E815F8168856A
:103140008A850E945C0679C08091360281FD05C0A7
:1031500080E066246394712C4AC088EC96E00E945B
:10316000E00475E1672E72E0772E412C512C5F92BE
:103170004F92A3ECB6E0BF93AF930E94790580EC29
:1031800096E00E94E004D3018C9111969C91B2E0EC
:103190006B0E711C9C870E941623282F9C85892FFB
:1031A0002D870E9416232D8530E0322F2227F9012A
:1031B000E82BCF019F938F933F922F920E94790526
:1031C00088EB96E00E94E004FFEF4F1A5F0A0FB60B
:1031D000F894DEBF0FBECDBF35E04316510439F67B
:1031E000B7CF8F5F660C771C8F3009F497CF9301B0
:1031F0002E213F21232BA9F389834B854A83C620A7
:10320000D72081E0CD2809F480E08B830E94AF2194
:103210008160782F9D838C8349815A816B818D8158
:103220000E945C06000F111FF801E95CFD4F8081D0
:103230009181682679267182608280912B02882391
:1032400009F490C080912A02E0912502E695E81BDE
:10325000E0932102823049F4F0E0E351F94FE49128
:103260000E2F10E02EEC39E049C0863049F4F0E032
:10327000E651F94FE4910E2F10E02EEB39E03EC0FD
:10328000893051F4E695F0E0E951F94FE4910E2FC1
:1032900010E025E239E032C08F3051F4E695F0E0DD
:1032A000EC51F94FE4910E2F10E022EB38E026C0EC
:1032B000853149F4F0E0EF51F94FE4910E2F10E021
:1032C0002EE538E01BC0883181F0833239F4EFED10
:1032D000F6E00591149123E639E010C0843251F4F0
:1032E00004EF11E021EF37E009C008EE13E029E216
:1032F00038E004C000ED17E022E835E080912202BA
:103300008823A9F0109222022D873C870E94AF21CA
:10331000A80140955095840F951F909320028093AB
:103320001F0210922402109223023C852D85809169
:103330001F02909120022D873C870E9485212D85B8
:103340003C858017910770F0E0911F02F0912002F8
:103350000E0F1F1F1093200200931F028FE192E0B7
:10336000F901099580913302909134020E948521E0
:10337000AC0190913202911103C02CE231E002C005
:1033800022E330E04217530708F478C080912E0200
:1033900010912F0281110BC01111B5C02091300284
:1033A0002111B1C0209131022111ADC067C09F3FF2
:1033B00019F09F5F90933202181624F40E94D720D0
:1033C00080932E0280912E0287FF05C00E94D72095
:1033D000819580932E02111624F40E94D7208093A9
:1033E0002F0280912F0287FF05C00E94D720819570
:1033F00080932F0230912E023323E1F020912F028F
:103400002223C1F045EB3403C0011124892F990F09
:10341000990B009709F481E080932E0255EB250368
:10342000C0011124892F990F990B009709F481E0AD
:1034300080932F0280913002181624F40E94B52048
:10344000809330028091300287FF05C00E94B52032
:1034500081958093300280913102181624F40E94E5
:10346000B520809331028091310287FF05C00E9410
:10347000B5208195809331020E94BB2110913502C5
:103480000E941D07181709F4EBCD0E941D07182F85
:10349000809335028091360282FFE2CD80FF04C026
:1034A00088EF96E00E94E0048091360280FF0CC015
:1034B0001F921F9383EF96E09F938F930E9479054D
:1034C0000F900F900F900F908091360280FFC8CD23
:1034D00081EF96E00E94E004C3CD80E189BD82E1E6
:1034E00089BD09B400FEFDCF8091D8008F7D809307
:1034F000D8008091E00082608093E0008091E0003D
:1035000081FDFCCFADCD9F3F09F053CF5BCFCF9274
:10351000DF92FF920F931F93CF93DF931F92CDB74C
:10352000DEB7F82E8B0199830E948815998181114D
:103530001CC0CF2CD92E01151105B1F08091E800E7
:1035400085FD0AC08091E8008E778093E8000E9494
:103550008815882381F309C0F60181916F0180935A
:10356000F10001501109E7CF80E00F90DF91CF917A
:103570001F910F91FF90DF90CF9008951F93CF93ED
:10358000DF93CDB7DEB7AA970FB6F894DEBF0FBEB4
:10359000CDBFE2E5F2E088E08E0F9091F1009193CB
:1035A0008E13FBCF80915302833009F460C030F456
:1035B000813071F0823009F49AC0B1C08A3009F4C8
:1035C00086C08B3009F46BC0893009F0A8C020C0D8
:1035D00080915202813A09F0A2C08091E800877F71
:1035E0008093E8008091560290915702892B21F434
:1035F00068E086E492E003C060E080E090E070E084
:103600000E940E168091E8008B778093E80087C0B7
:1036100080915202813209F082C0809156029091CD
:103620005702029708F07BC08091E800877F809363
:10363000E8008091E80082FD05C080915002811170
:10364000F8CF6DC02091F3008091F20090E0922BB2
:10365000029729F48091F1008B7F813021F48091D1
:10366000F100809345028091E8008B7754C08091EF
:103670005202813A09F053C080915602909157024C
:10368000892B09F04CC08091E800877F8093E80087
:103690008091E80080FFFCCF8091170137C08091B6
:1036A00052028132E1F58091560290915702892BA6
:1036B000B1F58091E800877F8093E8000E94BA15F9
:1036C00080915402809317010E94192728C080918D
:1036D0005202813221F58091E800877F8093E800D3
:1036E0000E94BA15809155028093440218C08091BF
:1036F0005202813AA1F48091E800877F8093E8002C
:103700008091E80080FFFCCF809144028093F1001B
:103710008091E8008E778093E8000E94BA1580912E
:10372000E80083FFE2C18091520290915302492F39
:1037300050E04A30510508F0D8C1FA01EA58FF4F6D
:103740000C94A928803821F0823809F0CEC108C035
:1037500080914E0290914F02992389F082600FC0B0
:10376000809156028F70873008F0BFC18093E900C6
:103770008091EB0085FB882780F91092E9009091F9
:10378000E800977F9093E8008093F1001092F10099
:103790007FC1282F2D7F09F0A8C1882319F082301E
:1037A00061F0A3C180915402813009F09EC1933031
:1037B00009F080E080934F022EC080915402811165
:1037C0002AC0809156028F702FEF280F263008F004
:1037D0008CC18093E9002091EB0020FF1CC0933046
:1037E00021F48091EB00806214C09091EB00906115
:1037F0009093EB0021E030E0A90102C0440F551F77
:103800008A95E2F74093EA001092EA008091EB007B
:1038100088608093EB001092E9008091E800877F38
:103820008093E8000E94BA1560C181115EC11091B9
:1038300054021F778091E3008078812B8093E3000E
:103840008091E800877F8093E8000E94BA158091FC
:10385000E80080FFFCCF8091E30080688093E30064
:10386000111102C082E001C083E0809350023DC18B
:103870008058823008F039C12091540230915502AD
:103880002C3D53E0350779F583E08A838AE289830A
:103890004FB7F894DE01139620E03EE051E2E32FAB
:1038A000F0E050935700E49120FF03C0E295EF70E1
:1038B0003F5FEF708E2F90E0EA3010F0C79601C0A6
:1038C000C0968D939D932F5F243149F74FBF809110
:1038D000E800877F8093E8006AE270E0CE010196FD
:1038E0000E940E16C4C08091560290915702432F39
:1038F000552743305105B9F06CF44130510509F4B6
:1039000003C14230510509F0F0C08BE590E0EBE1D6
:10391000F8E05BC04132510509F434C04232510530
:1039200009F43FC0E2C0C901992781309105D1F067
:103930005CF4892B09F0D9C0EEEAF8E0E4918E2F0F
:1039400090E0EEEAF8E03EC08230910599F00397EE
:1039500009F0CBC0E8E8F8E0E4918E2F90E0E8E8C9
:10396000F8E030C0ECE9F8E0E4918E2F90E0ECE96B
:10397000F8E028C0EEE8F8E0E4918E2F90E0EEE861
:10398000F8E020C08330910508F0AFC0880F991F80
:10399000FC01E557FE4F0190F081E02D89E090E0B9
:1039A00014C08330910508F0A0C0FC01EE0FFF1F8A
:1039B000EB57FE4F0190F081E02DDC01AE57BE4F7A
:1039C0008C9190E0009709F490C02091E800277F47
:1039D0002093E800209158023091590228173907A6
:1039E00008F4C90140E0009789F120915002222398
:1039F00009F43DC02530D9F12091E80023FD37C0FE
:103A00002091E80022FD2FC02091E80020FFEBCF9D
:103A10004091F3002091F20030E0342B009759F0F0
:103A20002830310540F444914093F10031960197DC
:103A30002F5F3F4FF3CF41E02830310509F040E0E0
:103A40002091E8002E772093E800CDCF4111CDCF13
:103A50000AC080915002882351F0853041F0809156
:103A6000E80083FD04C08091E80082FFF2CF8091DE
:103A7000E8008B778093E80038C08038B1F58091FA
:103A8000E800877F8093E800809151028093F100E5
:103A90008091E8008E77C4CE811127C01091540226
:103AA000123018F58091E800877F8093E80010932A
:103AB00051020E94BA15111106C08091E30087FDE2
:103AC00002C081E001C084E08093500242E061ECDA
:103AD00081E00E94D91542E261EC82E00E94D91592
:103AE00042E261EC83E00E94D9158091E80083FFF7
:103AF00010C08091E800877F8093E8008091EB0000
:103B000080628093EB0005C082E190E0E6E7F8E098
:103B10005CCFAA960FB6F894DEBF0FBECDBFDF9183
:103B2000CF911F9108951F920F920FB60F921124FB
:103B30002F933F934F935F936F937F938F939F93B5
:103B4000AF93BF93CF93DF93EF93FF93C091E900BF
:103B5000CF708091EC00D82FD17080FDD0E810920A
:103B6000E9008091F000877F8093F00078940E94B4
:103B7000BE1A1092E9008091F00088608093F000F6
:103B8000CD2BCF70C093E900FF91EF91DF91CF91E2
:103B9000BF91AF919F918F917F916F915F914F9165
:103BA0003F912F910F900FBE0F901F901895E8ED49
:103BB000F0E080818E7F80831092E2001092DA0024
:103BC0001092E100A0EEB0E08C9181608C93808136
:103BD0008F77808319BCA7EDB0E08C918E7F8C939A
:103BE00080818F7E8083109243020895CF92DF926E
:103BF000EF92FF920F931F93CF93DF93C8EDD0E026
:103C000088818F7E8883E7EDF0E08081816080830A
:103C100084E082BF81E08093430288818E7F888325
:103C200002EE10E0F80110821092DA0081EEC82E48
:103C3000D12CF601108288818F77888388818068F3
:103C4000888388818F7D888319BC109250021092DE
:103C5000510210924F0210924E0290EEE92EF12C7A
:103C6000F70180818B7F808388818160888342E037
:103C700060E080E00E94D915F60180818E7F80830C
:103C8000F801808181608083808188608083F70172
:103C900080818E7F8083888180618883DF91CF914E
:103CA0001F910F91FF90EF90DF90CF9008951F929A
:103CB0000F920FB60F9211242F933F934F935F9360
:103CC0006F937F938F939F93AF93BF93EF93FF93E4
:103CD0008091E10082FF49C08091E20082FF45C0EF
:103CE0008091E1008B7F8093E100209142022F5F61
:103CF000822F62E30E947528992319F020934202D3
:103D000034C01092420280914102882371F1809167
:103D10005002843041F58091E9008F702091EC00D1
:103D2000922F917020FD90E8892B93E09093E90009
:103D30009091EB0090FF14C09091EE0097FF10C09F
:103D40009091E80095FF03C01092F100F9CF909197
:103D5000E80090FF05C09091E8009E779093E800FE
:103D60008F708093E900109241028091DA0080FF09
:103D700032C08091D80080FF2EC08091DA008E7F03
:103D80008093DA008091D90080FF1CC080E189BD5A
:103D900082E189BD09B400FEFDCF81E0809350022D
:103DA00087E098E00E94E00480914302811113C0F3
:103DB0000E94D71D0E94F61D8091E20084608093CE
:103DC000E20009C019BC109250028BE098E00E94FA
:103DD000E004109243028091E10080FF1BC08091BB
:103DE000E20080FF17C08091E2008E7F8093E200A6
:103DF0008091E20080618093E2008091D80080622F
:103E00008093D80019BC85E0809350028FE098E041
:103E10000E94E0048091E10084FF36C08091E200BE
:103E200084FF32C080E189BD82E189BD09B400FE12
:103E3000FDCF8091D8008F7D8093D8008091E100E4
:103E40008F7E8093E1008091E2008F7E8093E2007C
:103E50008091E20081608093E2008091510288238A
:103E600011F084E007C08091E30087FD02C081E08B
:103E700001C083E08093500283E198E00E94E00457
:103E80000E9419270E941D078091E10083FF2BC02B
:103E90008091E20083FF27C08091E100877F8093BB
:103EA000E10082E080935002109251028091E10083
:103EB0008E7F8093E1008091E2008E7F8093E2000C
:103EC0008091E20080618093E20042E060E080E067
:103ED0000E94D9158091F00088608093F00087E1FE
:103EE00098E00E94E004FF91EF91BF91AF919F9104
:103EF0008F917F916F915F914F913F912F910F9093
:103F00000FBE0F901F901895809145020895CF9392
:103F1000DF9300D01F92CDB7DEB79091500294305E
:103F200019F589837B836A8382E08093E9008FEFB0
:103F30009091E800815095FD06C095ED9A95F1F7B6
:103F400000008111F5CF8091E80085FF0DC040E0B1
:103F500050E063E070E0CE0101960E94871A8091E4
:103F6000E8008E778093E8000F900F900F90DF911C
:103F7000CF910895CF93DF93EC010E9471168230A8
:103F800011F0843031F4BE0184E0DF91CF910C94C4
:103F9000871FDF91CF910895BC016058710983E0BC
:103FA0000C94871FCF93DF93EC010E94711682302F
:103FB00011F08430F9F482E08093E9009FEF809162
:103FC000E800915085FD06C085ED8A95F1F7000067
:103FD0009111F5CF8091E80085FF0CC040E050E0E2
:103FE00066E070E0CE010E94871A8091E8008E772B
:103FF0008093E800DF91CF910895CF93DF93EC0198
:104000000E947116823011F0843039F581E080937E
:10401000E9008FEF9091E800815095FD06C095ED85
:104020009A95F1F700008111F5CF8091E80085FFA6
:1040300014C040E050E068E070E0CE010E94871AB2
:104040008091E8008E778093E80088E0FE01A6E486
:10405000B2E001900D928A95E1F7DF91CF9108953A
:10406000803F39F480912F0287FF6CC010922F029D
:1040700069C0813F29F480912F021816BCF362C0F9
:1040800090912E02823F29F497FF5CC010922E027D
:1040900059C0833F19F41916CCF354C0893F41F439
:1040A0008091300218160CF04DC0109230024AC0B8
:1040B0008A3F29F48091300287FF44C0F6CF8B3FBE
:1040C00039F48091310287FF3DC0109231023AC02D
:1040D0008C3F29F4809131021816BCF333C0843F21
:1040E00021F480912D028E7F17C0853F21F48091AD
:1040F0002D028D7F11C0863F21F480912D028B7F90
:104100000BC0873F21F480912D02877F05C0883F37
:1041100031F480912D028F7E80932D0213C08D3F4C
:1041200021F48091DD028E7F0BC08E3F21F48091BF
:10413000DD028D7F05C08F3F29F48091DD028B7FEA
:104140008093DD0280912E0281110EC080912F029A
:1041500081110AC080913002811106C08091310224
:10416000811102C01092320208958091DD0280FD1B
:1041700016C081FD16C082FD18C0809132028823CE
:1041800091F0883290F428E0829FC001112468E207
:1041900070E00E949528862F672B29F007C082E0E7
:1041A000089584E0089581E0089588E0089580915D
:1041B000DD0280FD14C081FD14C082FD16C0809117
:1041C0003202882381F0843180F422E3829FC0018F
:1041D000112464E170E00E949528862F08958CE0F8
:1041E000089589E1089585E0089582E30895803F68
:1041F00021F40E94D720819504C0813F29F40E94B8
:10420000D72080932F020895823F21F40E94D72067
:10421000819504C0833F29F40E94D72080932E0209
:104220000895893F19F40E94B52005C08A3F31F4F2
:104230000E94B52081958093300208958B3F21F430
:104240000E94B520819504C08C3F29F40E94B520BE
:10425000809331020895843F21F480912D02816082
:1042600017C0853F21F480912D02826011C0863FE6
:1042700021F480912D0284600BC0873F21F480914E
:104280002D02886005C0883F31F480912D02806145
:1042900080932D0208958D3F21F48091DD0281608D
:1042A0000BC08E3F21F48091DD02826005C08F3FFC
:1042B00029F48091DD0284608093DD020895789472
:1042C0001F920F920FB60F9211248F939F93AF936B
:1042D000BF938091D9029091DA02A091DB02B09154
:1042E000DC020196A11DB11D8093D9029093DA02E0
:1042F000A093DB02B093DC02BF91AF919F918F91AD
:104300000F900FBE0F901F901895CF92DF92EF92F3
:10431000FF920F931F932FB7F8944091D9025091B9
:10432000DA026091DB027091DC022FBF6A017B012F
:10433000EE24FF248C0120E030E0C016D106E20616
:10434000F30610F4415051099A01281B390BC90199
:104350001F910F91FF90EF90DF90CF9008952FB7AE
:10436000F8948091D9029091DA02A091DB02B09189
:10437000DC022FBF08958091360283FF7EC083EF59
:1043800098E00E94E00480912D021F928F938EEEA0
:1043900098E09F938F930E9479058CEE98E00E949D
:1043A000E00480912E02282F082E000C330B3F933F
:1043B0008F9389EE98E09F938F930E94790587EE03
:1043C00098E00E94E00480912F02282F082E000C14
:1043D000330B3F938F9384EE98E09F938F930E94CB
:1043E000790582EE98E00E94E00480913002282F47
:1043F000082E000C330B3F938F938FED98E09F9323
:104400008F930E9479058DED98E00E94E0048091E1
:104410003102282F082E000C330B3F938F938AED27
:1044200098E09F938F930E94790587ED98E00E9412
:10443000E004809132021F928F9384ED98E09F9365
:104440008F930E94790582ED98E00E94E0048091AC
:10445000DD021F928F938FEC98E09F938F930E94C1
:1044600079058CEC98E00E94E0048DB79EB74C96DD
:104470000FB6F8949EBF0FBE8DBFE0911202F0916F
:104480001302309749F082E080932C020480F5817A
:10449000E02D8CE292E009950E94AF2190933402C6
:1044A0008093330208951F920F920FB60F9211243A
:1044B0008F939F93AF93BF9380911402811113C088
:1044C0008091D9029091DA02A091DB02B091DC02D6
:1044D0004196A11DB11D8093D9029093DA02A09359
:1044E000DB02B093DC02BF91AF919F918F910F904F
:1044F0000FBE0F901F901895FC01329608962081F0
:10450000261301C010823196E817F907C1F7089504
:104510009C01FC0132969FEF80E04191461789F0A3
:104520009F3F19F4411101C0982F8F5F8630A9F782
:104530009F3F39F0F901E90FF11D97FDFA9562836C
:1045400008950895CF9384E090E00E942D28C82F0D
:1045500081E290E00E942D282C2F30E0A901582BF9
:10456000CA01CF9108956CEE7EEF80E090E00E944A
:104570005F2860E082E090E00E94412860E083E0F4
:1045800090E00E9441281092D5021092D60210921B
:10459000D7021092D80260E084E090E00E944128A7
:1045A00060E081E290E00E94412860E085E090E0D8
:1045B0000E94412860E086E090E00E9441286FEF71
:1045C00087E090E00E94412840E050E0BA0188E096
:1045D00090E00E94532860E08DE090E00E94412826
:1045E00040E050E0BA0188E190E00E94532860E08A
:1045F00087E190E00E94412840E050E0BA018CE160
:1046000090E00E94532860E080E290E00E94412800
:1046100040E050E0BA018FE090E00E94532840E073
:1046200050E0BA0183E190E00C9453288295982FD2
:104630009C7C392F36953695282F237344E0249F90
:10464000C0011124932F982B292F2A7A2695892F80
:104650008575880F822B08958091D4028111109264
:10466000D4020895FF920F931F93CF93DF939091FD
:10467000D2028091D302892B2091D102982F922BC4
:1046800090935A028091D402882391F0892B8093D1
:104690005A02ECE5F2E080E096E09E0F9E1729F0CA
:1046A00021912223D9F38F5FF9CF81110E942C230E
:1046B000E0911202F09113023097B1F10280F38180
:1046C000E02D8AE592E009958091360282FF2CC0A8
:1046D00080FF04C08AEB98E00E94E004CAE5D2E0C3
:1046E00004EB18E0FC2E88E0F80E8091360280FF83
:1046F0000BC088811F928F931F930F930E9479059F
:104700000F900F900F900F902196FC12EECF80919A
:10471000360280FF09C082EB98E0DF91CF911F91B4
:104720000F91FF900C94E004DF91CF911F910F91B6
:10473000FF900895BF92CF92DF92EF92FF920F9376
:104740001F93CF93DF938C01C090D502D090D602F7
:10475000E090D702F090D8028091CC029091CD02E7
:10476000A091CE02B091CF02C82AD92AEA2AFB2A08
:10477000CFE1D0E0D701C6010C2E04C0B695A795B5
:10478000979587950A94D2F780FF07C0BC2EB80191
:104790008C2F0E94C10C019719F4219758F7B12C66
:1047A0008B2DDF91CF911F910F91FF90EF90DF90B4
:1047B000CF90BF900895CF93DF93EC010E949A238E
:1047C000BE010E94C10CDF91CF9108952FE0929F0E
:1047D000800D1124682F669566956695982F9770C1
:1047E00085E0689FB001112440E050E080E0FA01CC
:1047F000E60FF71FE656FD4F208130E0092E02C07C
:10480000369527950A94E2F721703327042E01C0CC
:10481000220F0A94EAF7822B4F5F5F4F4530510514
:1048200031F708952FE0929F800D1124A82FA695AF
:10483000A695A695877051E001C0550F8A95EAF7B5
:1048400085E0A89FD001112420E030E070E0F9015C
:10485000EA0FFB1FE656FD4F4081CB01022E02C03E
:10486000969587950A94E2F7817099278195842718
:104870008523842780832F5F3F4F2530310539F70B
:1048800008956093CC027093CD028093CE029093F2
:10489000CF020C94FE260F931F9341E050E060E09E
:1048A00070E004C0440F551F661F771F8A95D2F72A
:1048B00040955095609570958091CC029091CD0275
:1048C000A091CE02B091CF028A019B010823192347
:1048D0002A233B23C901B8011F910F910C94412455
:1048E0002091D002809582238093D002982F9770D8
:1048F00079F430E0482F082E000C550B24173507AB
:1049000039F08595859585950E944B241092D002AB
:1049100008950F931F9341E050E060E070E004C001
:10492000440F551F661F771F8A95D2F78091CC02DE
:104930009091CD02A091CE02B091CF028A019B014D
:10494000082B192B2A2B3B2BC901B8011F910F9162
:104950000C9441246093D5027093D6028093D702C1
:104960009093D8020C94FE2680919902909168024F
:10497000891719F08F5F8770FBCF089580916702C8
:1049800082958F7009F054C080916402882309F4E5
:104990004FC080919902A09168026091620270916B
:1049A00063024091650250916602B6E08A1709F4ED
:1049B0003FC090E041155105C1F17F3F11F46F3FB9
:1049C000A1F1B89FF001B99FF00D1124E759FD4FF7
:1049D000218172132AC02081621327C022812111F4
:1049E00024C0238134812417350710F42150310964
:1049F000241B350B283C3105C0F4209167022F7031
:104A000020612093670226E0289FF001299FF00D86
:104A10001124E259FD4F80818F708061808382E68E
:104A200092E00E947F0E0C94B42401968770BECF52
:104A300008950E94DB23292F2F7092959F70E92FF4
:104A4000F0E03297EE30F105B8F4E058FF4F0C94E7
:104A5000A928803F99F018F4883E70F40FC0843F75
:104A600059F40CC0883E50F0813F31F407C0822FCA
:104A7000869586958695089580E0089581E008954D
:104A8000BF92CF92DF92EF92FF920F931F93CF933B
:104A9000DF93CDB7DEB761970FB6F894DEBF0FBED8
:104AA000CDBF8C0185E0F801DE011D9601900D92CD
:104AB0008A95E1F7D8013C9111962C9111971296A5
:104AC000EC9012971396CD90DC901497509162025F
:104AD000609163028091650290916602009709F4EB
:104AE0004FC16F3F19F45F3F09F44AC1B0906402AF
:104AF000BB2009F4ECC040916702C816D90628F023
:104B0000F601E81BF90BCF0104C0809590958C0D40
:104B10009D1DFF24F394883C910548F0F12C407FC3
:104B200009F09FC082E692E00E947F0E21C1842F8F
:104B3000807F09F044C0621312C0531310C0E1100B
:104B40000EC04F7040614093670282E692E00E947F
:104B50007F0E80916702D80115968C932EC0CD28C8
:104B600019F12F3F11F43F3FF9F0FE2CE1101CC06A
:104B7000809199024091680256E0841709F458C068
:104B800090E0589FF001599FF00D1124E759FD4F17
:104B90006181261306C06081361303C062816111F2
:104BA00003C001968770E9CFFE2CEE2009F415C1F1
:104BB00080916702816080936702F12C0EC16213BD
:104BC0000AC0531308C0E11006C080916702D801E3
:104BD00015968C93B0C03D872E878D859E850E944B
:104BE00019258823D1F1EE20C1F120916702822F8F
:104BF00082958F7090E0029774F08091620290919C
:104C0000630298878F831986DB86CA862C87CE013C
:104C100007960E947F0E86E0F801A2E6B2E00190BE
:104C20000D928A95E1F70E94BE24FF24F394D5C02B
:104C30003D872E878D859E850E94DB23292F229517
:104C40002F7030E0223031050CF0BBC09F7009F0AE
:104C5000B5C0805E883008F4C0C0C8010E947F0ED5
:104C6000E4CF621314C0531312C0E11010C080913E
:104C70006702F8018583C8010E947F0E86E0E2E6A4
:104C8000F2E0DF011D928A95E9F7FB2CA6C03D8773
:104C90002E878D859E850E9419258823F1F2EE20AE
:104CA000E1F220916702822F82958F7090E0029747
:104CB0000CF4B1CF80916202909163029A83898350
:104CC0001B82DD82CC822E83CE010196A2CFC81634
:104CD000D90638F0C81AD90AB8ECCB16D10450F06E
:104CE00007C0809590958C0D9D1D883C910510F016
:104CF000F12C3EC0FE2CEE2009F4AFCF621327C08A
:104D0000531325C02091670220FD18C0822F829581
:104D10008F70482F50E04115510581F0F80125832F
:104D20004F30510541F08F5F982F9295907F822FE1
:104D30008F70892B8583C8010E947F0E86E0F80161
:104D4000A2E6B2E001900D928A95E1F746C03D8758
:104D50002E878D859E850E94192581115CCF8091BB
:104D60006702816080936702C8010E947F0E35C090
:104D7000E2E6F2E086E0DF011D928A95E9F72DC0B8
:104D8000EE2009F46ACF3D872E878D859E850E948F
:104D90001925F82E882309F460CF86E0F801A2E6F1
:104DA000B2E001900D928A95E1F7809162029091B4
:104DB00063020E94DB230E94BE240FC0811149CFF1
:104DC0000CC0243031050CF048CF9F7009F441CF5E
:104DD000F8019581907F09F03CCF8F2D61960FB639
:104DE000F894DEBF0FBECDBFDF91CF911F910F9121
:104DF000FF90EF90DF90CF90BF9008951092D20275
:104E00001092D1020E943223ECE2F2E086E0DF0150
:104E10001D928A95E9F7109232021092DD020E94EB
:104E2000BB2180E090E00E94070780E090E00C94B6
:104E3000F1061092D30286E0ECE5F2E0DF011D926C
:104E40008A95E9F70C94FE26882341F0809590918D
:104E5000D30289238093D3020C94322308958823AC
:104E600039F09091D302892B8093D3020C94322392
:104E70000895882309F463C0823869F40E941D07ED
:104E800081FF5DC069E38AE592E00E9488220E946A
:104E9000322369E30EC0833891F40E941D0780FF1E
:104EA0004EC063E58AE592E00E9488220E94322388
:104EB00063E58AE592E00E947C220C9432238438D8
:104EC00069F40E941D0782FF3AC067E48AE592E018
:104ED0000E9488220E94322367E4EBCF9CEF980F58
:104EE000913A10F4682FE5CF90E2980F983088F44B
:104EF000877021E030E0A90102C0440F551F8A9558
:104F0000E2F7CA0180959091D30289238093D3025E
:104F1000D4CF9BE5980F933020F480E090E00C9480
:104F2000070798E5980F973120F480E090E00C9403
:104F3000F106803F20F00E9430200C94BB210895A0
:104F4000882309F489C08238B1F40E941D0781FDCD
:104F500083C069E38AE592E00E9488220E9432239E
:104F60002FEF41EE54E0215040405040E1F700C0A7
:104F7000000069E317C08338D9F40E941D0780FD43
:104F80006BC063E58AE592E00E9488220E9432238A
:104F90008FEF91EE24E0815090402040E1F700C077
:104FA000000063E58AE592E00E947C220C943223A3
:104FB0008438B1F40E941D0782FD4EC067E48AE583
:104FC00092E00E9488220E9432234FEF51EE84E04B
:104FD000415050408040E1F700C0000067E4E2CF5C
:104FE0009CEF980F913A30F4682F8AE592E00E9486
:104FF0008822DCCF90E2980F983080F4877021E00F
:1050000030E0A90102C0440F551F8A95E2F7CA019A
:105010009091D302892B8093D302C8CFEBE5E80FA0
:10502000E33038F4F0E0EF56FE4F808190E00C94CE
:105030000707E8E5E80FE73148F4F0E0EE0FFF1F5F
:10504000EC56FE4F808191810C94F106803F20F058
:105050000E94F7200C94BB210895F999FECF92BDD0
:1050600081BDF89A992780B50895A6E1B0E044E0A3
:1050700050E00C946728A8E1B0E042E050E00C94C6
:105080006728262FF999FECF92BD81BDF89A019726
:1050900000B4021639F01FBA20BD0FB6F894FA9A80
:1050A000F99A0FBE08950396272F0E9442280E9466
:1050B0004128252F0E944228242F0C944228019633
:1050C000272F0E9442280C944128DC01CB01FC01CF
:1050D000F999FECF06C0F2BDE1BDF89A319600B451
:1050E0000D9241505040B8F70895991B79E004C0E3
:1050F000991F961708F0961B881F7A95C9F7809517
:105100000895AA1BBB1B51E107C0AA1FBB1FA6170E
:10511000B70710F0A61BB70B881F991F5A95A9F760
:1051200080959095BC01CD01089597FB072E16F44C
:10513000009407D077FD09D00E94812807FC05D094
:105140003EF4909581959F4F0895709561957F4F9E
:105150000895EE0FFF1F0590F491E02D0994FC01D6
:105160004150504030F001900616D1F73197CF01F1
:0C5170000895882799270895F894FFCF30
:10517C0001191A1B1C1D1E1F2021220102841FFD58
:10518C001FD21FCC1FBA1F01818283E200E900EA03
:10519C0000B500B600B700CD008301CC008A0192A7
:1051AC000194012102230224022502260227022A4D
:1051BC0002B300B4006F007000000102020202068C
:1051CC0006060909090909090F0F0F0F0F0F15150D
:1051DC0015181919191919191919191923243033F2
:1051EC00673666F6F5F4F1C695939291909496977E
:1051FC003435408522C707420720072D0846085F33
:10520C0008818283E200E900EA00B500B600B7002D
:10521C00CD008301CC008A0192019401210223026A
:10522C0024022502260227022A02B300B4006F00D2
:02523C00700000
:00000001FF
